:020000040804EE
:10000000C04B00240D2F040831B00408F92E040859
:10001000F92E0408F92E0408F92E04080000000047
:10002000000000000000000000000000452F040850
:10003000F92E04080000000039310408756704082F
:10004000B1310408B1310408B1310408B1310408F8
:10005000B1310408B1310408B1310408B1310408E8
:10006000B1310408B1310408B1310408B1310408D8
:10007000B1310408B1310408B1310408B1310408C8
:10008000B1310408B1310408B1310408B1310408B8
:10009000B1310408B1310408B1310408B1310408A8
:1000A000B1310408B1310408B1310408B131040898
:1000B000B1310408B1310408B1310408B131040888
:1000C000B1310408B1310408B1310408B131040878
:1000D000B1310408B1310408B1310408B131040868
:1000E000B1310408B1310408B1310408B131040858
:1000F000B1310408B1310408B1310408B131040848
:10010000B1310408B1310408B1310408B131040837
:10011000B1310408B1310408B1310408B131040827
:10012000B1310408B1310408B1310408B131040817
:10013000B1310408B1310408B1310408B131040807
:10014000B1310408B1310408B1310408B1310408F7
:10015000B1310408B1310408B1310408B1310408E7
:10016000B1310408B1310408B1310408B1310408D7
:10017000B1310408B1310408B1310408B1310408C7
:10018000B1310408B1310408B1310408B1310408B7
:10019000B1310408B1310408B1310408B1310408A7
:1001A000B1310408B1310408B1310408B131040897
:1001B000B1310408B1310408B1310408B131040887
:1001C000B1310408B1310408B1310408B131040877
:1001D000B1310408B1310408B1310408B131040867
:1001E000B1310408B1310408B1310408B131040857
:1001F000B1310408B1310408B1310408B131040847
:10020000B1310408B1310408B1310408B131040836
:10021000B1310408B1310408B1310408B131040826
:10022000B1310408B1310408B1310408B131040816
:08023000B1310408B1310408EA
:1002380080F0004002E000BF81F0004142001FBF93
:100248005FEA410392EA030F7FEA226C7FEA236C9C
:100258006AD04FEA1262D2EB1363C1BFD218414091
:1002680048404140B8BF5B42192B88BF704710F027
:10027800004F40F4000020F07F4018BF404211F0CA
:10028800004F41F4000121F07F4118BF494292EA32
:10029800030F3FD0A2F1010241FA03FC10EB0C005E
:1002A800C3F1200301FA03F100F0004302D54942EB
:1002B80060EB4000B0F5000F13D3B0F1807F06D398
:1002C80040084FEA310102F10102FE2A51D2B1F190
:1002D800004F40EBC25008BF20F0010040EA030085
:1002E8007047490040EB0000013A28BFB0F5000F05
:1002F800EDD2B0FA80FCACF1080CB2EB0C0200FABB
:100308000CF0AABF00EBC25052421843BCBFD04009
:100318001843704792F0000F81F4000106BF80F483
:1003280000000132013BB5E74FEA41037FEA226C46
:1003380018BF7FEA236C21D092EA030F04D092F011
:10034800000F08BF0846704790EA010F1CBF002045
:10035800704712F07F4F04D1400028BF40F00040A2
:10036800704712F100723CBF00F50000704700F0C2
:10037800004343F0FE4040F4000070477FEA2262E9
:1003880016BF08467FEA23630146420206BF5FEABA
:10039800412390EA010F40F4800070474FF00003BA
:1003A80004E000BF10F0004348BF40425FEA000C81
:1003B80008BF704743F0964301464FF000001CE029
:1003C80050EA010208BF70474FF000030AE000BF7F
:1003D80050EA010208BF704711F0004302D54042BD
:1003E80061EB41015FEA010C02BF8446014600202F
:1003F80043F0B64308BFA3F18053A3F50003BCFA4A
:100408008CF2083AA3EBC25310DB01FA02FC6344F6
:1004180000FA02FCC2F12002BCF1004F20FA02F2FD
:1004280043EB020008BF20F00100704702F12002F0
:1004380001FA02FCC2F1200250EA4C0021FA02F251
:1004480043EB020008BF20EADC7070474FF0FF0C56
:100458001CEAD0521EBF1CEAD15392EA0C0F93EA51
:100468000C0F6FD01A4480EA010C400218BF5FEAF3
:1004780041211ED04FF0006343EA501043EA511166
:10048800A0FB01310CF00040B1F5000F3EBF490060
:1004980041EAD3715B0040EA010062F17F02FD2A64
:1004A8001DD8B3F1004F40EBC25008BF20F0010047
:1004B800704790F0000F0CF0004C08BF49024CEA5E
:1004C800502040EA51207F3AC2BFD2F1FF0340EAF0
:1004D800C250704740F400004FF00003013A5DDC61
:1004E80012F1190FDCBF00F000407047C2F10002A2
:1004F800410021FA02F1C2F1200200FA02FC5FEA8F
:10050800310040F1000053EA4C0308BF20EADC70D8
:10051800704792F0000F00F0004C02BF400010F44A
:10052800000F013AF9D040EA0C0093F0000F01F0F7
:10053800004C02BF490011F4000F013BF9D041EA19
:100548000C018FE70CEAD15392EA0C0F18BF93EA1B
:100558000C0F0AD030F0004C18BF31F0004CD8D145
:1005680080EA010000F00040704790F0000F17BFCC
:1005780090F0004F084691F0000F91F0004F14D012
:1005880092EA0C0F01D142020FD193EA0C0F03D16A
:100598004B0218BF084608D180EA010000F000406D
:1005A80040F0FE4040F40000704740F0FE4040F448
:1005B800400070474FF0FF0C1CEAD0521EBF1CEAE7
:1005C800D15392EA0C0F93EA0C0F69D0A2EB030205
:1005D80080EA010C49024FEA402037D04FF080539F
:1005E80043EA111143EA10130CF000408B4238BF64
:1005F8005B0042F17D024FF4000C8B4224BF5B1A72
:1006080040EA0C00B3EB510F24BFA3EB510340EABF
:100618005C00B3EB910F24BFA3EB910340EA9C006D
:10062800B3EBD10F24BFA3EBD10340EADC001B01DD
:1006380018BF5FEA1C1CE0D1FD2A3FF650AF8B4281
:1006480040EBC25008BF20F0010070470CF0004C8E
:100658004CEA50207F32C2BFD2F1FF0340EAC250B9
:10066800704740F400004FF00003013A37E792F07A
:10067800000F00F0004C02BF400010F4000F013AD8
:10068800F9D040EA0C0093F0000F01F0004C02BFD3
:10069800490011F4000F013BF9D041EA0C0195E73C
:1006A8000CEAD15392EA0C0F08D142027FF47DAFD5
:1006B80093EA0C0F7FF470AF084676E793EA0C0FC5
:1006C80004D14B023FF44CAF08466EE730F0004CC3
:1006D80018BF31F0004CCAD130F000427FF45CAF53
:1006E80031F000437FF43CAF5FE700BF42000ED219
:1006F800B2F1FE4F0BD34FF09E03B3EB126209D455
:100708004FEA002343F0004323FA02F070474FF00A
:100718000000704712F1610F01D1420202D14FF07F
:10072800FF3070474FF00000704700BF53B94AB917
:10073800002908BF00281CBF4FF0FF314FF0FF30E1
:1007480000F00CB8ADF1080C6DE904CE00F01AF811
:10075800DDF804E0DDE9022304B07047704700BF0C
:1007680010F8012B11F8013B012A28BF9A42F7D053
:10077800D01A7047034613F8012B002AFBD1181A28
:10078800013870472DE9F0478C468E46089E15467D
:1007980004461946002B40F0D080724547D9B2FA7A
:1007A80082F74FB1C7F120030EFA07FC20FA03F3D2
:1007B800BD4043EA0C0CBC404FEA154EA8B2BCFB46
:1007C800FEF8230C0EFB18CC08FB00F943EA0C4397
:1007D800994528D9EB1808F1FF3204D2994502D976
:1007E800A8F102022B44A3EB0903A4B2B3FBFEFC5D
:1007F8000EFB1C330CFB00F044EA0344A04214D95E
:100808002C190CF1FF3304D2A04202D9ACF1020337
:100818002C44241A43EA02401EB1FC4000233460F1
:100828007360BDE8F0874246DDE76346F1E7002ADA
:1008380079D0B2FA82F3002B3FD01946C1F12003D8
:1008480002FA01F52EFA03F20EFA01FE20FA03F37A
:1008580043EA0E034FEA154E00FA01F4B2FBFEFC20
:10086800AFB20EFB1C201A0C0CFB07F842EA004240
:1008780090455AD9AA180CF1FF3004D2904502D9F4
:10088800ACF102002A44A2EB08029BB2B2FBFEFCC8
:100898000EFB1C220CFB07F743EA02439F4246D992
:1008A800EB180CF1FF3204D29F4202D9ACF10202DC
:1008B8002B44DB1B42EA004202E0AEEB02030122BA
:1008C8004FEA154EAFB2B3FBFEFC200C0EFB1C33F7
:1008D8000CFB07F840EA034398452AD9EB180CF1BA
:1008E800FF3004D2984502D9ACF102002B44A3EBA7
:1008F8000803A4B2B3FBFEFC0EFB1C330CFB07F78A
:1009080044EA0344A74216D92C190CF1FF3304D248
:10091800A74202D9ACF102032C44E41B43EA00408D
:100928000F46114678E71F2188E76046ABE7624625
:10093800BFE76046DBE76346EFE7734506D916B9BC
:10094800002108466DE7C6E9000EF9E7B3FA83F718
:1009580087B9734501D3824207D8841A6EEB030323
:1009680001209C461EB900215BE73846FAE7C6E934
:10097800004CF8E7C7F1200CBB4022FA0CF51D43E8
:1009880020FA0CF12EFA0CF30EFA07FE41EA0E01DA
:100998004FEA154900FA07F4B3FBF9F81FFA85FE88
:1009A80009FB18300B0C08FB0EFA43EA00439A4582
:1009B80002FA07F240D9EB1808F1FF3004D29A4541
:1009C80002D9A8F102002B44A3EB0A0389B2B3FBB6
:1009D800F9F809FB183308FB0EFE41EA03418E457E
:1009E8002CD9691808F1FF3304D28E4502D9A8F131
:1009F8000203294443EA0040A0FB0298A1EB0E0140
:100A08004145CE46434602D306D14C4504D2B9EB04
:100A1800020E68EB05030138002EA4D0B4EB0E02D9
:100A280061EB030101FA0CFC22FA07F34CEA030319
:100A3800F940C6E9003196E74046C5E74346D9E79D
:100A480040F2FF33994228BF194610B50A460C46B2
:100A5800014606480EF02AFB0023044A1355044BAE
:100A68001C600448BDE8104007F020BED81F0024D1
:100A7800601B00246C05002408B50122044B1A7081
:100A8800044807F013FE0448BDE8084009F05FBCBD
:100A9800D82300245C050024A8FF040837B5424881
:100AA80009F055FC414D28460DF0BEFE38B96FF0EF
:100AB80012043F4809F04BFC204603B030BD2A69B8
:100AC8002846A968136843F400531360394A0B6831
:100AD8000D219847041E04DA2146374809F037FCEF
:100AE800EAE7364800F028FE041E05DA14F1780F0C
:100AF80002D021463248F1E7324A69462F4800F0D1
:100B08003BFE041E02DA21462F48E7E72F4809F08A
:100B18001EFC4FF0FF324FF0FF332D4807F0FAFD6F
:100B28002C4809F014FC0F222B49684600F046FEB9
:100B3800041E02DA21462948D0E7294809F007FCB3
:100B48004FF0FF324FF0FF33264807F0E3FD264908
:100B5800264809F0FCFB26492348FFF701FE044616
:100B6800D0B9244809F0F3FB2B691B689B04AB68D8
:100B78004FF400510D4854BFDB681B6998471E4865
:100B880009F0E5FB1D4809F0E2FB1D4809F0DFFB11
:100B9800194809F0DCFB8FE713496FF00404194882
:100BA80009F0D5FB88E700BFC3FF04085CF304081D
:100BB800EFFF040801000A000B00050800F504080F
:100BC8002D000508D0000024530005087900050809
:100BD8005C0500249A000508BE000508CD0005083C
:100BE800E30005086C050024D81F0024040105084B
:100BF8001901050829010508400105086F010508C4
:100C080095010508BF0105082DE9F843884600AF9E
:100C180000297DD005680122284609F018F9014607
:100C28000446284609F0CDF810EA020616D1E9462E
:100C380088B06A46384BCDE90538032342F8103F9F
:100C48004FF4C2513346354801F088FBCD4686F350
:100C58001188BFF36F8F0423184602DF2146284608
:100C680009F0C5F8261800222846314609F0A9F8E7
:100C7800361AB44218D06E4688B06946284BCDE97A
:100C88000538032341F8103F244813460A464FF419
:100C9800C25101F063FB0023B54683F31188BFF30B
:100CA8006F8F0423184602DF00222146284609F0E8
:100CB800A4F8214609F09BF8261801222846314657
:100CC80009F07FF8C20708D43146284609F001F92F
:100CD80032462146284609F073F900222146284663
:100CE80009F06FF8261A01222846314609F069F8FA
:100CF800C30709D43146284609F0EBF822463446A2
:100D08003146284609F05CF92146284609F076F96B
:100D1800BD46BDE8F88300BF420205087CFA040816
:100D2800190205082DE9F04F91B0840705460E46D3
:100D3800009302F00403DDF868A00293C2F3C20333
:100D4800039203F10103059340F09D81041D0028DF
:100D580049D101F00706341DC6F10806009B00279B
:100D68004FF004085A1E4FF0FF33B946BB460193B3
:100D7800434604970DB1009921600598002800F3B7
:100D8800D68090480099814203D38F488142C0F0B1
:100D9800CE800399601B11F0020C40F0D680B9F1A7
:100DA8000F0F00F2CF80002D00F0D68009F140012E
:100DB800C0F387000DEB010E01990EF8200C0EF818
:100DC800101CBCF1000F00F0C38060F07F000137F9
:100DD8000EF8200C09F10109C5F1080104344FF699
:100DE800DA7E06918CE00729B8D86FF01B0011B0A5
:100DF800BDE8F08F7A285BD84B280FD8472857D8FA
:100E080029282ED8252850D052D8202818BF232882
:100E18000CBF4FF0010B4FF0000B71E04C382E283F
:100E280046D8DFE800F06D4545454545454545450B
:100E3800454548454545454545454556454848562F
:100E480056566D486A456D4518481845457F7C4893
:100E5800454548457C0000204FF0000B4FF0040842
:100E680035E02A380121C0B201FA00F010EA0E0F6D
:100E780046D110F0625C2CD110EA010B40D06046DC
:100E8800013C4444B4FBF8F408FB04F425B1A3EB9B
:100E9800050CA444B445A8D8002870D00599013998
:100EA80005915AF8041B009164E7019901390191F1
:100EB8004FF0000B24E012F8010C6C2834D112F822
:100EC800023C00206C2B8346C8D14FF008084346EB
:100ED800D6E70AF1070A07342AF0070A24F00704BC
:100EE800FAE802BC35B106982044B0423FF67DAF1F
:100EF800C4E900BC08344FF0000B4FF00808434623
:100F080012F8010F002853D0BBF1000F7FF472AF25
:100F18002528F5D1019B4FF0010B013301934FF0C8
:100F28000408ECE7584697E700208346A8E70399AA
:100F380088077FF551AF601B4FF0010CB0F5007FBB
:100F4800FFF42DAF6FF0150051E74FF0000CF5E7F7
:100F58000498013004903DE7BCF1000F01D0013640
:100F680038E70298023600287FF434AF0098CDE9BC
:100F78000632FFF7FFFB0644DDE906322AE7042BB9
:100F880008D10AF1040015B1DAF800102160043420
:100F98008246B5E70AF1070323F0070303F1080ABD
:100FA8001DB1D3E90001C4E9000108340823A7E70B
:100FB800631BB3F5806FC5D245B9A6F10804E018E4
:100FC80015E700BF08F20408901305089B08029A69
:100FD80028602B709DF81030AAB1EB70AF702FB15C
:100FE80008A80022C5F1010C91450ED1C5F10103F5
:100FF8000DF120084FF0000A0DF1300B0193D14597
:1010080012D1601BF3E66B70E8E710F8013B190694
:1010180008D50CEB040E03F07F03B6453FF6E5AEAA
:1010280004F8013B0132DFE71FB198F90020002ADC
:1010380017DB029BD3B11AF80B2004F8012B00220E
:10104800019B18191044B0423FF6CFAE98F8000043
:10105800009904F8010B204603920EF027F8039A32
:1010680014440AF1010A08F10108C8E798F80020B9
:1010780055F822300093029B009845F82230FFF77C
:1010880079FB421CDCE76FF00D00B0E62DE9F04F6C
:1010980097B005468A4600AFC7E90A3249B90378CE
:1010A8004678807800EB83002844564524D8A0EB86
:1010B800050AD7F8803095F8028003F00103D7F8C5
:1010C8008040FB61B8F1000F0CBF002404F001045C
:1010D800EB787B621BB1D7F880309A0715D4A4B996
:1010E800FB6A1BB1BA6A51462846984756463046AD
:1010F8005C37BD46BDE8F08F441C0AF1010A204662
:10110800FFF738FB01302044CFE7D7F88030C3F32E
:10111800C0033B622B78BB619B003B616B687B61C2
:10112800BB6905EB830BFB6A002B77D15646D84485
:10113800BCB11C461BF8013B55F82300FFF71AFB0E
:10114800D7F88430013043B1D7F88830A34282BF42
:10115800D7F8843023F814000134C3450644E9D194
:10116800D846D7F880304FF0000913F0050F0CBFB0
:101178004FF0020B4FF0010B7B6A9945B7D298F8F4
:10118800013008F1020855F823A0AD4B9A45C0F08C
:101198004B81AC4B3A6A9A452CBF002301230AB312
:1011A80018F8021C7869FB6209F0B0F8FB6AC8B14C
:1011B800EA468AB06A46A44B05937B69CDE90631B5
:1011C8004FF40073ADF82030A04B42F8103F0023D5
:1011D8004FF412519E48023E01F0C0F8D54609F17D
:1011E8000109C9E723B1FB6933B9A6EB0B06F6E79A
:1011F800D7F880309B07F2D55046FFF7BBFAD7F8EF
:1012080084304BB1D7F888309C423FBF431CD7F895
:10121800842022F8143001340644E0E7002C69D118
:10122800B8F1000F6CD0D7F8803058076BD5C1469D
:1012380007F14800424659460DF038FF0BEB08030A
:101248000022FB600233796A8A425ED3D7F8802095
:1012580095F801B09207F96904EB0B0354BF4FEA04
:1012680059020022DBB2002940F0A680D7F880108E
:1012780011F0040F14BF494600216B702846A9706D
:10128800EA703969BA6AFB6A9847061EFFF62FAFFB
:10129800BB694946BA6A07F148002B707B6A85F832
:1012A80001B0EB7085F80280FB6A9847B0F100093D
:1012B800C0F2B6803B697A6A786A03EB4201FB6840
:1012C800BA6A414403EB4000FB6AAAEB0101984764
:1012D8000028C0F2A780B1444FF0000B07F1380A8C
:1012E80009EB0006A34569D30021BA6AFB6A0846E0
:1012F8009847FCE6444607F138004FF0000999E7A3
:101308004446C1469AE7A14698E713F8016CDFF80E
:1013180030C155F8260013F8021C6045C0F08A80D9
:10132800DFF820C16045386A2CBF4FF0000B4FF042
:10133800010B38B17869C7E9013208F0E7FFD7E94E
:101348000132F0B9BBF1000F1ED0F96949B1611C37
:1013580004F1280007F13004041904F8206CCCB219
:101368000FE0D7F8801049070BD509F1280007F1DD
:10137800300C09F1010100EB0C0909F8106C5FFA57
:1013880081F9013202335EE7D7F880008007DED4A6
:1013980009F1280C07F1300E09F1010009F10209E1
:1013A800F4445FFA89F90CF8101C07F1580151FA56
:1013B80080F000F8106CE4E700215EE71BF80A30C3
:1013C80055F8239087F83730D7F884302BB3D7F8FF
:1013D80088309B4521D2D7F8843033F81B80BA6A0D
:1013E800012107F13700FB6A984700281ADB0644F9
:1013F800B8F1000F06D14846FFF7BCF900F1010823
:101408001FFA88F8BA6A41464846FB6A9847002896
:1014180008DB06440BF1010B64E74FF00008DEE738
:101428004E4664E6064662E63B6A002B3FF4E0AEB1
:101438000023B5E6386A0028A6D04FF0000B79E7FC
:1014480008F20408901305086F020508040000015B
:1014580024FA0408014B1860704700BFEC00002410
:1014680080B505460E461746984607F097FEDFF802
:101478002090034601F0AAFE0446424649F800308F
:1014880039463046A84754F8090001F03BFE00BF32
:1014980008000000054B00205A6822F002025A603A
:1014A8005A6822F001025A60704700BF0010005CC1
:1014B80008B5416805480C3183681B681BB198471B
:1014C80000EAE07008BD6FF05700F9E708F3040878
:1014D800192810B502D90024204610BD044B53F832
:1014E800204020460DF0A0F90028F5D1F3E700BF11
:1014F800C4FB04082DE9F0410124406802F03006DD
:101508004FF4801745688C40DFF8C4C0DFF8C4E0AA
:10151800DCF8A00070450CD0781CF9D0013FF7D159
:1015280087F31188BFF36F8F4FF00408404602DF3E
:10153800EEE76F68C2F38010C2F3C11CC2F3412208
:1015480027EA04078840202E40EA0700686004FA6A
:1015580001F0D5F8088000EB400E00FB0CFC00FB06
:1015680002F228EA0E086FEA0E074CEA080CC5F8E2
:1015780008C0D5F80CC02CEA0E0C42EA0C02EA604E
:101588000CD1072917D800FA01F22C6A8A40C2EB5D
:1015980002115A4324EA01010A432A622B683609D8
:1015A8004FF440721F404643094B00203E432E60D3
:1015B8001A62BDE8F081240A6A6A64436443C4EB92
:1015C8000411634322EA010213436B62E6E700BF9A
:1015D8000064025800030080EFF31180102383F3A6
:1015E8001288BFF36F8F094B1A683AB9084A116815
:1015F80041F4807111601168C905FCD51A6801327F
:101608001A6080F31188BFF36F8F7047181C00248D
:101618000048025810B5EFF31184102383F31288A1
:10162800BFF36F8F134B1A68C2B9134B0122BFF374
:101638005B8F53E8001F002903D143E800200028EE
:10164800F7D1BFF35B8F04D10C4A02210C4809F093
:1016580010FC84F31188BFF36F8F10BD012A04D1E9
:1016680008490A6822F480720A601A68013A1A6006
:10167800EFE700BF181C0024141C0024C803050849
:101688008CFA040800480258164B82B0D3F8E020C0
:1016980042F00072C3F8E020D3F8E02002F00072B4
:1016A8000192019AD3F8F42042F00202C3F8F42020
:1016B800D3F8F42002F002020092009A4FF0B042F0
:1016C800D2F80427D20706D503F50053D3F8903093
:1016D800002002B07047D3F8A02042F00802C3F8F7
:1016E800A020F5E70044025808B501F0D3FD01F049
:1016F80073FD0C4B0C4A1A600C4AD36823F03F0365
:1017080043F00203D3600A4B1A6841F20303B3EBB8
:10171800124F06D1074AD2F8083143F00103C2F844
:10172800083108BDA00300240090D00300480258E7
:101738000010005C0080005110B530B90B480C490E
:1017480009F01AF96FF0150010BD836833B907481E
:10175800084909F011F96FF00400F5E71B6813B1A7
:10176800BDE8104018471846EEE700BF34FA0408F1
:10177800170405082804050870B508B101B132B985
:101788000B480C4909F0F8F86FF0150070BD846833
:101798000CB1256935B90648074909F0EDF86FF02D
:1017A8000400F3E741F8040B2369BDE870401847CB
:1017B80034FA0408460405082804050870B51346D9
:1017C800044630B91048114909F0D6F86FF01500F1
:1017D80070BD006830B90C480D4909F0CDF86FF0BC
:1017E8000100F5E782680AB1956835B906480949E4
:1017F80009F0C2F86FF00400EAE70A46AC466168EF
:10180800BDE87040604700BF34FA04087204050858
:10181800830405082804050830B50C4685B00E4930
:1018280005460291D0F8CC11CDE9003100F1F00164
:101838004FF0FF33204606F043F950B9012384F8EE
:101848006C30D5F8C83123B1204605B0BDE830402A
:10185800184705B030BD00BF93AA04082DE9F04F22
:1018680005698146012389B005F55B774668BFF3B2
:101878005B8F57E8002F002A03D147E80031002981
:10188800F7D10CBF1A460022BFF35B8F40F0B3803C
:10189800B36805F5F478B16A1C1F104609F049F9D8
:1018A800844271D8013A00F0A080B2FA82F24FF077
:1018B8000044D44072680732204622F00302C5F87B
:1018C8003422B16A09F035F9C5F83802B36A4046DE
:1018D8006343033323F0030302EB43022301C5F8F8
:1018E8002C2203EB4403093323F0030303EBC40363
:1018F8001A440832C5F828227368C5F83042C5F87A
:1019080024323E4BC5E9AB63316800F02FFA044638
:10191800002837D1D9F804A0D9F80030D9F810B088
:1019280005930BF53279DAE90734CDE90600012B86
:10193800484608BF103C0DF0C3F905ABDAF824108F
:101948002F484FF48062009323464FF4886404FBC9
:101958000101484607F07EF82A490BF52E700DF074
:1019680068F9DAE9050183685C684CB15B46264A88
:10197800A047044630B9DAE9050183681B692BB929
:101988006FF05704002129E0013286E701229847C9
:1019980004460028F6D11D4B2846C5F8C8311C4B13
:1019A800C5F8CC311B4B0393D5F838320293D5F8E0
:1019B8003432CDE9008305F50F73B26AD5F86813A0
:1019C80000F09CF904460028DCD105F1F00006F08F
:1019D8001DF90028C5F870030ADB0221384609F012
:1019E8008CF8204609B0BDE8F08F6FF00B04C9E70A
:1019F8006FF01504C6E76FF07704F2E7EDAA040864
:101A080000240024D3AA0408C7AA04089D1A0408BD
:101A180019AC0408211A04082DE9F04190460C4637
:101A280099B30B788BB3D0F8BC50A5F5DE76143596
:101A38004FF0FF324FF0FF33284606F043FD2146B2
:101A4800304609F024F80746A0B93046104909F095
:101A58001EF8064620B92846BDE8F04109F04BB803
:101A68001F22214648300DF049FB86F86770C6F8FA
:101A78006880F0E7284609F03EF843462246394692
:101A88003046BDE8F041FFF7C7BEBDE8F08100BFB2
:101A9800AB11050813B5044640B100230122CDE976
:101AA8000032074BD0E9091205F0DEFF236F1B68EF
:101AB80023B1606F02B0BDE81040184702B010BDF6
:101AC800AB11050813B5044608462169BFF35B8FBF
:101AD800D1F86C13BFF35B8F022910D193B1A0B179
:101AE8000121CDE900311346D0E9091205F0BCFF08
:101AF800074B984208BF6FF00B0002B010BD6FF0A3
:101B08000F00FAE76FF04C00F7E76FF00100F4E719
:101B18002EF8FFFF2DE9F843894615460669BFF3FD
:101B28005B8FD6F86C33BFF35B8F022B66D11368DB
:101B3800EBB11B78DBB1D6F86873002F3FD106F5FF
:101B4800E8784FF0FF324FF0FF33404606F0BAFC1A
:101B58002968304608F09BFF044660B92949304699
:101B680008F095FF044638B9404608F0C4FF6FF006
:101B78001500BDE8F883012705F108032367AB6961
:101B880064646367002384F86C3067B1404608F0EA
:101B9800B2FFA36E2A6821463046FFF73DFE0020BB
:101BA800C9F80040E5E71F22296804F148000DF054
:101BB800A5FA404684F8677008F09DFFEFE71149E1
:101BC800304608F064FF04460028D0D005F1080329
:101BD80000271F220367AB6980F86C704367406475
:101BE800483029680DF08AFA22460121304684F8E7
:101BF800677000F065F80028D1D0B8E76FF00F00E3
:101C0800B7E700BFAB11050810B50C460069BFF374
:101C18005B8FD0F86C33BFF35B8F022B0FD189B188
:101C28000A4900F52E700DF030F820460CF080FBC4
:101C38007822002120460DF047FA002010BD6FF0F1
:101C48000F00FBE76FF00100F8E700BF1C1C002441
:101C58002DE9F04FD0F8BCA085B005460E46904659
:101C6800AAF5BA74002721463046FEF779FDE0B997
:101C7800124BA4F1480B3246294602935846DAF82B
:101C88001030AAF5DE79CDE900834FF0FF3305F077
:101C980017FF78B97823012203FB079383F86C2098
:101CA800DAF80C300BB1584698477B1C783401277A
:101CB800022BD8D105B0BDE8F08F00BF47AC0408AF
:101CC8001FB5144690B18AB1012912D10A4B00F10F
:101CD800F00148320293D0F8CC31204601934FF0FE
:101CE800FF33009305F0ECFE04B010BD6FF0150053
:101CF800FAE70020F8E700BF47AC04082DE9F043F5
:101D080087B00E4614461F46DDE90E81DDE9102531
:101D180030B329B3DFF850C000F1F009002D08BF37
:101D280065469EB90596CDE9034400F5DE74204664
:101D38000CF028FD03AB2A4641464846CDE900434E
:101D48003B4605F0D5FF07B0BDE8F08300224146C9
:101D580048460E922A4607B0BDE8F04306F0DCB8C4
:101D68006FF01500EFE700BF591C0408F0B52C4AC6
:101D780087B004460E4604AB92E8030083E80300EC
:101D8800002C49D0184605F08FFD0546B0B9E16C26
:101D98004FF0FF3304F1540704F13802A1630093B4
:101DA800CDE901003846236D0CF008F8A06C08F066
:101DB80067FFC4F8BC0020B96FF00B05284607B0D0
:101DC800F0BDA06C08F05CFFC4F8C0000028F3D098
:101DD800236CD4F8BC10C4F890300423B4F848201D
:101DE800C4F89430C4F8AC300223C4F88C10E36211
:101DF8000C4B616C236204F18C03C4F8A070A4F846
:101E08009820C4F8B870C4F8A810A4F8B020C4F892
:101E1800A400A6612363D1E76FF01505CEE700BFE4
:101E2800CCFA040888FC04082DE9F0470446074664
:101E38004FF00109DFF84C8094FAA4F5B5FA85F55E
:101E480009FA05F32E0108EB05156FEA030A24EADF
:101E580003042B7B63B158F806301B696BB9464401
:101E68000422284607EA0A077368196808F091FFF0
:101E7800002CE1D13846BDE8F0872846984700286D
:101E8800F6D1ECE7BCFA040810B5002288B00F4977
:101E98000F480DF0E0F849F64042002300240D49B0
:101EA8000D480094CDE906230E234FF44072CDE986
:101EB8000334CDE90144094B06F0F4FE084906480D
:101EC8000CF016FF204608B010BD00BFED1E040838
:101ED800A012002440280024180E00240D22040813
:101EE800AD040508014806F0E1BB00BF7C050024ED
:101EF8002DE9F047804620480F4608F022FF0646A5
:101F0800002832D000252846BDE8F087237B83B11E
:101F18002368DB680BB120469847636883F806900E
:101F280023681B69CBB9636804222046196808F046
:101F380030FF013610345445E8D3B8F1000FE2D031
:101F4800002DDFD02846FFF76FFF0546002FF7D09A
:101F5800002164200CF08CFFF2E720469847002807
:101F6800E1D009FA06F31D43E3E7044C0546DFF820
:101F780010A04FF00109DEE74C1C0024BCFA04084D
:101F8800CCFA0408014B53F820007047C8FC040839
:101F980008B5034608462BB1044A136000F03EFC1E
:101FA800002008BD6FF01500FBE700BF1C010024EE
:101FB80010B5044C237813B9034806F077FB0123C6
:101FC800237010BDD92300247C05002410B50446D5
:101FD8000B4808F0B6FE5CB10A4BBFF35B8F53E8C1
:101FE800001F013943E80012002AF8D1BFF35B8FC4
:101FF800054807F0F7FB0548BDE8104006F056BB5A
:10200800441C0024481C0024A01200247C05002441
:10201800064B0022BFF35B8F53E8000F43E8002113
:102028000029F9D1BFF35B8F704700BF441C00241F
:1020380070B5FFF7EDFF084C0546084EB44200D3D3
:1020480070BD63685B792BB123685B6813B129465F
:10205800204698471034F1E7BCFA0408CCFA040883
:1020680010B5044C0449204608F07DFA034B1C6067
:1020780010BD00BFB4040024B4FC04083C1C0024B8
:1020880000230D4A4FF47A710C4810B513700C4AAE
:1020980013600C4A1360FFF77BFFFFF7E1FF0A4B61
:1020A8000A4918468B4200D310BD1A1A5C681033CF
:1020B800121101322271F5E7DA23002465AD040814
:1020C800441C0024481C0024BCFA0408CCFA040868
:1020D800014600220023014808F066BAB40400242F
:1020E800014808F0FDBA00BFB4040024024B0146C1
:1020F800186808F050BB00BF3C1C0024014808F0D9
:1021080085BB00BFB4040024274B70B51B78002B97
:1021180047D0FFF7E5FF044600283FD1234B244D65
:102128001B68002B12DD0CF04EFF0A220023FEF77D
:10213800FDFAD5E90032C01A40F2E93361EB020139
:10214800984271F1000101D3FFF772FFD5E900321F
:1021580013F57A7342F10002C5E900320CB3BDE809
:102168007040FFF7CBBF6B685B7923B12B682146C2
:1021780028461B6898471035B542F4D32046FFF728
:10218800B5FF0C4BBFF35B8F53E8001F013943E8E1
:102198000012002AF8D1BFF35B8FBFE7064D074E48
:1021A800EAE7002070BD00BFD9230024441C0024A6
:1021B80098120024481C0024BCFA0408CCFA04082D
:1021C80070B50D4D297861B90C4C01200C4EFFF704
:1021D8008FFEB44206D3FFF797FF0028FBD10123F7
:1021E8002B7070BD63685B791BB1236820469B68C0
:1021F80098471034EDE700BFDA230024BCFA04083E
:10220800CCFA040800212DE9F8430846FFF770FED0
:10221800044648B34FF4FA784FF000091B4B00F01E
:10222800D5FF1B4A1B58136033B11A4B1B68092B87
:1022380002DD194806F03AFA0025184F44B1204645
:10224800FFF7F2FD044618B94FF0FF384FF0FF3999
:10225800FFF75AFF064628B9B5B90F4842464B461C
:1022680006F058FA3546E9E74FF0FF384FF0FF39E6
:10227800D4E72B689B691BB1002228461146984772
:102288001035BD42F5D3E8E7054DFAE70800000030
:10229800401C0024481C00247C050024CCFA0408B7
:1022A800BCFA040813B5184808F04BFD174B1B7807
:1022B80073B1EFF31184102383F31288BFF36F8F88
:1022C800FFF722FF84F31188BFF36F8F02B010BDB0
:1022D8000F4B1B68002BF9D050B9002200230D4882
:1022E800CDE9002342F21072002307F043FAEDE72C
:1022F8000928EBD1074807F075FA074802B0BDE88E
:10230800104006F0D3B900BF481C0024DA2300248B
:10231800401C0024A01200247C050024064B10B5A4
:1023280004461B6898472146A060044808F0B9F99C
:10233800BDE81040FFF7B6BF1C010024B404002418
:10234800044A054B9B1AB1EBD30F34BF52F8310046
:102358000020704724FA0408BCFA04082DE9F04F5D
:102368008FB0C1F34A260D46904604AF0C0DB860F5
:102378007B60002E61D04FF000090A234FF0040B58
:1023880007F1140AFE604A46C7F824904046C7E998
:102398000799009307F11C03CDF808B0CDF804A005
:1023A800F968FEF773FEB0F5006F03461CD36C4660
:1023B8008AB0D8F8041004AB24481A46C3E90501CA
:1023C80040F2FF71D9614FF400711984204B42F833
:1023D800103F4FF412514B461E48FFF7BFFFA5466A
:1023E8002C37BD46BDE8F08FC0F30A0604F117008C
:1023F8003B60184466F3532520F007008008FFF778
:1024080067FE044680B13B6800F11001124A40465D
:10241800F961C7E908390A23009307F11C03CDE9DC
:1024280001ABF968FEF732FE66F353257B68B9689D
:1024380020462A4608F0CDFCD2E704F1170020F028
:1024480007008008FFF744FE0446EDE7C2040508CC
:10245800040000013CFA0408ADAD04082DE9F04F72
:1024680087B00546884614469946DDE9127ADDE9C3
:10247800106BBFB110213B465A460020CDF800A092
:10248800CDF814A0FEF74EFCB0F5006F01460BD353
:1024980040F2FF73184A0221184807B0BDE8F04F10
:1024A80008F0F0BC3946384604F0070305F0070485
:1024B800E40044EA831444EA402444EA065406F15A
:1024C80017000391084420F007008008FFF700FE7A
:1024D800054640B13FB13B465A4603991030CDF806
:1024E80000A0FEF71FFC4B4622464146284607B08F
:1024F800BDE8F04F08F06DBC010505083CFA04087A
:10250800406820B1034BC01A40F3CF0070474FF02A
:10251800FF30704724FA04080EB403B503AB014634
:10252800054853F8042B019301F04EF802B05DF80A
:1025380004EB03B0704700BFEFAE0408CA0605D429
:102548008B064CBF02490349FFF7E6BF704700BF3F
:10255800AA110508A91105082DE9F04F89B0984678
:1025680004460D46159B9DF850900693189F0592BA
:10257800DDE916A30493B9F1000F00F0B08007F469
:10258800807307F0020B079308F001FC024600284D
:1025980074D078492046FFF7BFFF0646BBF1000F0D
:1025A80008D017F0440F6BD12A4673492046FFF72D
:1025B800B3FF064407F0010353B1704B204670493E
:1025C80053F829206F4B002A08BF1A46FFF7A4FFCB
:1025D80007F48073002B07F0080318BF4FF00008BA
:1025E800002B79D0684B2046684953F82920FFF71B
:1025F80093FF0546059B2BB11A4665492046FFF710
:102608008BFF0544B8F1000F05D0424661492046CA
:10261800FFF782FF054435445F48069B1BB12246FD
:102628005E4907F042FE049B002B00F08E80DDF827
:102638001080002639462046B8F1100F28BF4FF009
:102648001008FFF77BFFB54250DC002633461AF826
:10265800032020465249FFF75FFF0136102E4BD06A
:10266800710703D14F492046FFF756FF46453346C9
:10267800EDD34D492046FFF74FFFEEE706468DE7BD
:102688004A4B1868002894D0494B4FF47A7B4FF096
:102698003C0C1B68B5FBF3F5B5FBF0F100FB1155DD
:1026A8004FF461630BFB05F5B1FBF3F2B5FBF0FEEC
:1026B80003FB121100FB1E55B1FBFCF30BFB05F5E8
:1026C8000CFB1311B5FBF0F5009120463949CDE913
:1026D80001E5FFF721FF6CE707F008058AE7B8F185
:1026E800010F4D460CBF2C48334896E72D4920462C
:1026F8000136FFF711FFA6E7002630492046FFF70D
:102708000BFF33461AF8032020462D49A2F1200377
:102718005F2B28BF2E22FFF7FFFE0136102E0DD0AB
:10272800720703D11F492046FFF7F6FEB04533462E
:10273800E8D81C492046FFF7EFFEEEE7049BC244A9
:10274800B3EB080304937FF472AFB9F1000F0AD01A
:10275800FB0704D50B4A20460949FFF7DDFE394639
:102768002046FFF7EBFE204609B0BDE8F04F08F021
:10277800ADBB00BF3E05050842050508D8FC0408A6
:102788006705050839050508ECFC04086A0505080D
:102798007005050874050508EFAE0408D13504086E
:1027A800790505087511050873110508541C0024DE
:1027B800501C00244B05050825AF04087F050508B3
:1027C8008105050842F20F73114A8B4273B504461E
:1027D80028BF0B4605680521684607F083F863683B
:1027E80006460B2228465B680A4908F061FB6368C5
:1027F8003246694628465B6808F05AFB63681B2224
:1028080005495B68284608F053FB02B070BD00BF5D
:10281800150F05080B130508EF1205080021012301
:10282800064A904206D8064A01B901231360054BAF
:1028380018607047400801215B00F2E740420F0032
:10284800501C0024541C0024F8B50D4604464618B4
:10285800054FB44201D12846F8BD14F8011BBB68E6
:1028680001485B689847F4E7C8F40408014B036023
:102878000320704734FD04080E4A0F4B13B5012896
:1028880018BF1A46044601460C4809F065F870B9A5
:10289800012322460A49094809F059F938B90123A0
:1028A800EF22214605480093022308F056FC02B0A7
:1028B80010BD00BF280100243C010024E4050024C9
:1028C800ED05050808B51549154808F03CFD20BB7D
:1028D8001449134808F037FDF8B91349104808F0AF
:1028E80032FDD0B911490E4808F02DFDA8B90C48A1
:1028F80008F02CFC01280CD00020FFF7BDFF60B9C0
:10290800074808F053FC40B90548BDE8084008F0FE
:102918007DBCFFF7B1FF0028EED008BDC801002438
:10292800E4050024B001002498010024800100245B
:1029380003480021034A08B5121A08F06DFB08BDC8
:10294800A0060024E02300240748084A0849121A70
:1029580008B508F063FB0748074A0849121ABDE89A
:10296800084008F05BBB00BF00000024900600246C
:1029780090130508000000240000002490130508A7
:102988002DE9F047064600AF0C46002936D0E94647
:102998008AB0A3686D46D1E9001221484FF0050AB4
:1029A800E846CDE90501CDE9072348F810AF002333
:1029B80042464FF421511B48FFF7D0FCCD466369CE
:1029C800AD46D4E903121848C5F810A0C5E90501B9
:1029D800C5E90723002342464FF421511148FFF768
:1029E800BDFCCD46E369114A01210E4808F04AFAB8
:1029F800A3690F4A01210B4808F044FA012E07D1B8
:102A0800EFF305830B4A103B3146064808F03AFAC3
:102A18002146304605F0A6FABD46BDE8F08700BF5E
:102A28000606050874FA040835060508640605084C
:102A380073060508A106050830BFFFF7FDBF00BFF4
:102A48002DE9F0410B4E0546DFF82C80324606EBA7
:102A58000807CC1B094920460CF028FBA019083CA4
:102A6800424600210CF030FB07F108002C67BDE856
:102A7800F08100BF0000000008000000CCFA040844
:102A880010B5204C2049214808F0D5FAA36A9901CD
:102A980036D51E481E4908F0CEFA1E20A36ADA0170
:102AA80004D51A481B4908F0C6FA1F20154CA36A1A
:102AB8001B0304D51548184908F0BDFA2120A36A5C
:102AC800590304D51148154908F0B5FA22200D4CD0
:102AD800A36A9A0304D50D48114908F0ACFA2320DB
:102AE800A36ADB0304D509480E4908F0A4FA242098
:102AF800044A936A6FEA03436FEA1343936210BD73
:102B08001D20CBE700ED00E0B406050874FA0408C0
:102B1800CC060508DF060508F906050817070508A5
:102B28003C0705085607050870B506460D46284CAB
:102B38002849294808F07FFAA36AD9043CD52648D1
:102B4800264908F078FA1720A36A1A0504D52248FE
:102B5800234908F070FA18201D4CA36A9B0512D56A
:102B68001D48204908F067FAA36BA26A100409D52A
:102B78001D4A0121184808F085F91EB1A36A23F4FB
:102B88000043A3621920124CA36A590504D51248C0
:102B9800164908F050FA1A20A36ADA050ED50E482D
:102BA800134908F048FA1B20094A936A43F47F4303
:102BB800936200232B7070BD1620C5E7A36A9B049F
:102BC800F2D505480B4908F036FA1C20ECE700BF9F
:102BD80000ED00E08107050874FA04089707050866
:102BE800A8070508BB070508D4070508E90705086D
:102BF800040805081C0805082DE9F843804689469D
:102C08001746354D3549364808F015FAAB6ADE06E1
:102C180027D511243349324808F00DFAAB6A1D074D
:102C280004D5122430492E4808F005FA2A4DAB6A1B
:102C3800980718D52D492A4808F0FDF96E6BAB6A3C
:102C4800190646D52A4A33460121254808F01AF9BB
:102C5800B9F1000F03D0AB6A23F08003AB621324F1
:102C680003E01024DAE76FF015061B4DAB6ADA07AC
:102C780004D514241F491A4808F0DDF9AB6A9B06ED
:102C880004D515241C49164808F0D5F9124B9A6A40
:102C9800D50602D49A6A90070AD55B68190507D544
:102CA8004146304600F0E4F910B180F30988022467
:102CB800094B9A6A920603D55A6A22F400525A625C
:102CC8009A6A204642F0FF029A6200233B70BDE8F0
:102CD800F8836FF01506C2E700ED00E04B08050821
:102CE80074FA040861080508A80705089408050887
:102CF800AC080508C20805081C0805082DE9F041BC
:102D0800684B8AB004460025D3F8048000AFC8F3A6
:102D1800080685F31188BFF36F8F02F07F43B3F184
:102D28007F4F07D102F00C03082B12D15E495F4890
:102D380008F081F900252C460023FB71F31E092BAE
:102D480000F29080DFE803F00A8689828E8E8E8EEC
:102D58008E8C10074CBF0C460125EDE754495348AB
:102D680008F069F94F4E0023FB71F36A9A0705D5FD
:102D780050494E4808F05FF900232DE0F36A002B14
:102D880001DA4D49F5E7F36A5B00F5D54B49474849
:102D980008F051F97369A26943F480737361BFF352
:102DA8004F8FBFF36F8F32F8023C726922F4807242
:102DB8007261BFF34F8FBFF36F8F03F47F42B2F599
:102DC8005F4F2CD1DBB2022B29D123683C4A012169
:102DD800364808F057F82368FA79E2B907F1080687
:102DE80004F1200C2068083454F8041C3246644569
:102DF80003C21646F6D17A6A002D50D0C2F30801F4
:102E080021B96FEA52226FEA42227A6207F1080179
:102E18001846FFF7B5FD2837BD46BDE8F081214BC0
:102E28009A6AD2B22AB1FA1D01212046FFF7E4FEC0
:102E38000EE09A6A12F47F4F04D0F91D0120FFF7C3
:102E480073FE05E09B6AB3F5803F95D3FFF718FE44
:102E58000346C1E7FA1D0021E7E7F91D0020EEE768
:102E6800184986E718F4F87F174AE8468AB0174BDE
:102E780008BF13466A461649103ECDE905134FF4BC
:102E880000730796ADF82030124B42F8103F00232C
:102E98004FF411510548FFF761FAC5466CE76FF327
:102EA8000802B2E700ED00E00F09050874FA04080B
:102EB8003A09050851090508720905088009050835
:102EC8009F090508BB090508E1080508F608050873
:102ED800DF09050804000001044B5A6942F010029A
:102EE8005A615A6922F008025A61704700ED00E001
:102EF800EFF30880EFF3098101B57246FFF7FEFE94
:102F080001BD00BF0B4880F3088807F034FD10208E
:102F180080F3118808484FF40461401880F3098849
:102F2800EFF314800221084380F31488BFF36F8FF6
:102F380000F06AF8C04B0024003200241EF0040F91
:102F48000CBFEFF30880EFF30980816911F8021CC8
:102F58000229FFD001B5724608F062F801BD00BF32
:102F680000B2002807DB0123410900F01F00024AD4
:102F7800834042F82130704700E100E000B20028A9
:102F88000CDB4309012200F01F0005492033824071
:102F980041F82320BFF34F8FBFF36F8F704700BFF7
:102FA80000E100E04209054B00F01F0053F8222021
:102FB800012303FA00F01040704700BF00E100E071
:102FC80000B2013100284FEA0111C9B206DB00F155
:102FD800604000F5614080F80013704700F00F0072
:102FE800014B1954704700BF14ED00E0044B054A2B
:102FF80023F07F039360BFF34F8FBFF36F8F70474A
:103008000000040800ED00E008B5FFF7EFFF0C4AE8
:10301800D2F8883023F47003C2F88830EFF31483B1
:1030280023F0040383F31488BFF36F8FFFF780FC4A
:10303800FFF78AFC00F0ACF808F01CF805F0B6F8C9
:1030480000ED00E042F8203C203A009B074953601D
:10305800019B21F001019360029B9161D3604FF0C5
:103068008073D361002302654367704769140408BD
:10307800094A0346906870B113F1160F006E05D027
:10308800A0F14002934205D3834203D2814228BF74
:103098000020704700207047A41F002415460C4AE2
:1030A8000E4608B50B4B9060026F1A6000F018F9D5
:1030B8002C4686F309880020034B984720460021B8
:1030C80000220023014C204755B004086914040865
:1030D800A41F00247C1C0024014B10221A61704795
:1030E80000ED00E0054B5A699B689A4204D0044AF7
:1030F800536843F080535360704700BFA41F0024F7
:1031080000ED00E0084B9B6883420BD1EFF3058389
:1031180043B1064B5A6842F080525A605A6A22F408
:1031280000425A6206F040B8A41F002400ED00E0F7
:1031380014498A684FF030001044EFF3098C80E896
:10314800F01F102080F31288BFF36F8F0E4F4FF0DF
:1031580000664A698A603E60106F0C4C2060506FB0
:103168000023536780F3118804B5104600F0B8F8BF
:10317800BDE8044002F1300090E8F01F8CF30988A4
:1031880070470000A41F002404ED00E07C1C00240C
:10319800002304481021C21801337E2B82F8001343
:1031A800F9D1704700E100E008B5EFF30583064A5E
:1031B800103B02EBC30152F8330049688847BDE869
:1031C8000840FFF78FBF00BF38F5040801480068C2
:1031D800704700007C1C0024154A70B5536913F42D
:1031E800803323D1C2F88430BFF34F8FD2F88030B8
:1031F80043F6E074C3F3C900C3F34E335B0103EA3B
:103208000406014646EA81750139C2F86052F9D2CE
:10321800203B13F1200FF2D1BFF34F8F536943F4D2
:1032280080335361BFF34F8FBFF36F8F70BD00BF03
:1032380000ED00E0002910DD00F01F030B44BFF390
:103248004F8F07490344C1F8680220301A1A002A30
:10325800F9DCBFF34F8FBFF36F8F0020704700BFBB
:1032680000ED00E0002910DD00F01F030B44BFF360
:103278004F8F07490344C1F85C0220301A1A002A0C
:10328800F9DCBFF34F8FBFF36F8F0020704700BF8B
:1032980000ED00E00B4B5A6912F4003211D1BFF374
:1032A8004F8FBFF36F8FC3F85022BFF34F8FBFF319
:1032B8006F8F5A6942F400325A61BFF34F8FBFF3E0
:1032C8006F8F704700ED00E0024B0121024A03486E
:1032D80000F08AB8000008240000002464FD0408F7
:1032E800036E4021044A403B10461360034BC2E979
:1032F8000113012100F082B8801C002400000B1586
:1033080008B503461048D0F89020C2F30722013AC6
:10331800934207D90D4801210D4A07F0B3FD6FF01C
:10332800150008BDC0F898300A6822F01F021A4339
:1033380042F01002C0F89C208A6842F00102C0F8EE
:10334800A0201846EDE700BF00ED00E05CFA040895
:10335800F6090508F0B50E4685B01F460446002557
:10336800B5420DDA606810B397B1431E18420AD00F
:10337800104A2B460121104807F084FD6FF0150212
:10338800104605B0F0BD1F28F2D921680B42EFD1D5
:10339800236801A9019307F06EFEA3680343D0B226
:1033A8000393FFF7ADFF10F1160FE7D0421C01356C
:1033B8000C34D5E71C0A05085CFA0408044B0522FE
:1033C800C3F89420BFF34F8FBFF36F8F704700BFD0
:1033D80000ED00E0BFF35F8F024B0022C3F894209A
:1033E800704700BF00ED00E010B5034C01232278C0
:1033F800FFF7B0FF207010BDDC2300240B4A08B58E
:1034080000231278FFF7A6FF10F1160F07D0084A1D
:103418000021D2F89030C3F30723984200DB08BD9F
:10342800C2F898000130C2F8A010F2E7DC230024AB
:1034380000ED00E05E485F492DE9F043D0F8903098
:1034480085B00C68C3F307239C4200F2AE80FFF7F7
:10345800C1FF49680022944201F10C011AD1564F6C
:1034680068464FF00008554D3C70FFF7FFF9544C83
:103478008146544EC14520D13B7800204C49D1F8B3
:103488009020C2F307229342C0F289800020FFF700
:1034980095FF50E0C0F8982051F80C3C23F01F032A
:1034A8001343013243F01003C0F89C3051F8043C38
:1034B80043F00103C0F8A030CDE700984FEA081C9C
:1034C80000EB0811CB682340B3F5000F49D00BD8A7
:1034D800B3F5001F32D0B3F5800F37D0B3F5801F96
:1034E80014D008F10108C5E7B3F1007F42D0B3F169
:1034F800805F48D0B3F1807FF3D150F80C308868F2
:1035080007F0B9FD4A6840F0887009E050F80C30BF
:10351800886807F0B0FD40F088504A6840F43020D1
:10352800039001A93878CDE90123FFF7E9FE0028C7
:1035380031DA6FF0150005B0BDE8F08350F80C30B3
:10354800886807F098FD4A683043E9E750F80C307E
:10355800886807F090FD40F0C0604A6840F4003089
:10356800DEE750F80C30886807F085FD4A6840F0BF
:103578008270D5E750F80C30886807F07CFD4A68FF
:1035880040F48020CCE750F80C30886807F073FDD1
:103598004A682843C4E73B7801333B70A1E7C1F888
:1035A80098300133C1F8A00069E74FF0FF30C2E757
:1035B80000ED00E02CFC0408DC23002400000211CC
:1035C8000000F0FF00000811F0B587B007460E466E
:1035D80014460021102268461D460BF075FD022393
:1035E8002A4621468DF802306846044BCDE9047618
:1035F800019306F0A1F907B0F0BD00BF9FB0040821
:1036080008B5024B1B689847002008BD8C1C002495
:10361800034B044A1860937843F002039370704791
:103628008C1C0024E00100240649074821F007010A
:10363800C1F1105208B502F5002206F0E4FD0020A1
:1036480008BD00BF13800024901C002470B5416998
:103658000446867A0A4D59B1437ADB0706D42423F7
:1036680003FB0653DB691B689B689847002363616B
:103678002420214600FB0650BDE870400BF076BAC6
:103688009C0500242422024B02FB0030704700BF37
:103698009C050024827A2421054B01FB02331A6A17
:1036A8001B7D801A1B3323F00303B0FBF3F0704734
:1036B8009C05002438B52424827A064B04FB023387
:1036C800DB69D3E901240C601568FFF7E3FF04FB0D
:1036D800005038BD9C0500242DE9F04385B005460F
:1036E80090461C46684603910BF06FFCDDE90067C5
:1036F800EFF31189102383F31288BFF36F8F6B8A5E
:10370800002B41D02A8A9A4225D900220023284634
:1037180004F09AFF0446F0B189F31188BFF36F8F64
:10372800039B002B41D032463B4668460BF072FCA7
:10373800A27A2421254B204601FB023303A9DB6929
:103748001B681D68DDE90023A847606170BB20463F
:10375800FFF77CFF24E0698A4B1E6B8289F311888E
:10376800BFF36F8F2B7D2A8A1B332C6A521A23F0E2
:10377800030302FB0344154B154AEB1A9B105343F2
:10378800A3722B7DE372CBE789F31188BFF36F8FA8
:1037980023464246284604F057FF04460028BFD176
:1037A8000024204605B0BDE8F083636101230025AD
:1037B800E27A04F1180023812946039B656063823D
:1037C8000BF082FC63692582E360EAE79C0500242C
:1037D800398EE33870B50D4C242500B970BD037AD5
:1037E8004668002BFAD0013BDBB20372002BF5D1FF
:1037F800C3604360837A05FB03439B6913B1984711
:103808003046EAE7FFF722FFFAE700BF9C050024ED
:103818002DE9F04F1F4685B080468946154607F0CA
:1038280090FC044687B1404607F090FC012808D078
:103838002F4B6FF08502FFF7C9FC1A5005B0BDE8A1
:10384800F08FB4FA84F464096A1C21464046D2B267
:1038580008F009F806460028EAD045684FB12868FC
:1038680001AB696803C32A7A01AD1A7007238DF882
:10387800053009F10C07384607F0F7FD2A78294684
:10388800824228BF0246384607F030FCD6F80CA022
:10389800BAF1000F0AD1B9F81010B8F82E309942D1
:1038A800CCD9C91A384607F03CFCC7E7DAF8040057
:1038B80083681B6B13B9DAF800A0E9E7214698473B
:1038C8000028F8D0051F55F804BFBBF1000FF2D04F
:1038D8009BF80060002EEED0384607F0C6FDB042D7
:1038E800594634BF82B23246384607F0FFFBEAE752
:1038F8000C0000002DE9F04190F8283004460F46EE
:1039080000F1280603F01F03012B2FD0022B18D03B
:103918008BB394F82910204607F0BBFC024678B315
:1039280030461E4D07F0A9FD002834D113693BB37A
:103938003A463146204698470346FFF747FC2B5046
:1039480024E0818DC9B208F0C8F805460028E0D007
:10395800304607F092FD024668688368CAB99B68DA
:1039680073B13A463146BDE8F0411847818DC9B276
:1039780008F09AF8E9E790F8291008F0D1F8E4E798
:10398800064B6FF08502FFF721FC1A500020BDE8B6
:10399800F081DB68E4E7D368C9E700BF0C000000EA
:1039A8002DE9F04F0B7E93B004460D4633F08008A6
:1039B800164640F081847AB10846FFF70BFF6B7E0C
:1039C800DF0703D49E0711D52B7E7BB9204613B0A1
:1039D800BDE8F04F07F07DBD4A7E00F12809900749
:1039E80008D5802B0CD12846FFF7F4FE404613B0CB
:1039F800BDE8F08F910700F02384002B40F020846D
:103A0800D2072FD52B8A082B40F0FA83EA6829467B
:103A180000201368A3625368C9F8043007F054FB08
:103A2800054610B1FFF7D6FEEFE0484607F025FD42
:103A3800E28D70B9B2B12946A06908F0EAFF0146E3
:103A4800002800F02984204613B0BDE8F04F08F0A4
:103A5800EBB93AB11146204608F0E1F905460028CD
:103A680000F01A8494F828800023FFF7AFFBB14FC9
:103A780018F0600FC351C8F3411307D0032B40F06F
:103A8800BB816FF08503FFF7A1FB37E0484607F0DD
:103A9800F4FC94F82930002840F04E81013B0A2BB1
:103AA800EFD801A252F823F0273C04088B3A040807
:103AB800B33C04088B3A0408DD3A04088B3A04083E
:103AC8008B3A04088B3A04084D3B04088B3A0408E7
:103AD800AF3B0408618D7F29D3D8A38D002BD0D1AB
:103AE800E38D002BCDD118F01F0FCAD194F83030D8
:103AF800022B05D14FF0FF33FFF768FB3B5076E010
:103B0800A069036993F880301B0707D5C9B207F08D
:103B180016FD804628B1002D6CD167E7012384F893
:103B2800393094F83030012B0AD1638D43B984F8C9
:103B38003030FFF74BFB3B58002B00F0858056E0F8
:103B48000123F4E7204607F0FCFA628D0146FF2ABC
:103B580097D8E38D002B94D194F82830D80690D1CB
:103B680094F83030002BC5D02AB1D2B2204607F0E5
:103B7800A0FE0028BED0618D94F838308B42D8D092
:103B8800C9B2204607F09CFE80460028C3D1628D4A
:103B980005212046002A14BF0223012384F830306F
:103BA80008F0C7F9C5E708F01F08B8F1010F7FF45E
:103BB80068AFE38D002B7FF464AF628DFF2A3FF678
:103BC80060AFA18DFF293FF65CAF94F83030022B2F
:103BD80090D1D2B22046C9B208F0A6F810F1020F6F
:103BE800804640F00E81FFF7F1FA47F8008065B192
:103BF8004FF000082846FFF7EDFDB8F1000F7FF4FD
:103C0800F5AEFFF7E3FA3B58F3B1484607F035FC49
:103C18000346A069002B00F04283802148E3E38D2E
:103C2800002B7FF42EAF94F83030002B3FF462AFB6
:103C3800012BA18D02D100297FF45CAF18F01F0879
:103C48000CD0B8F1020F16D0E38D002B40F0CB82D8
:103C5800204607F028FC0028D7D1B7E600297FF4D2
:103C680049AF638D012BEFD194F86C3061F3C30336
:103C780084F86C30E8E7B4F82AA0BAF1000FE3D171
:103C88005FFA81F82046414608F03AF90346FFF703
:103C98009DFA3B50013302D14FF0FF383BE75246C3
:103CA8004146204607F0EFFB43E7E38D002B7FF406
:103CB800E8AE628DA38D022A5FFA83FA11D108F06B
:103CC8001F085AEA08087FF4DCAE0122190AA06925
:103CD80007F012FC00287FF4D4AE012384F83930B1
:103CE80027E794F8301000293FF404AF012902D1E6
:103CF800002B7FF4FFAE18F01F0811D0B8F1020FA7
:103D0800A2D1002AA0D15146204608F0E5F8034682
:103D1800FFF75CFA3B500133BED001225146C0E7A1
:103D2800002B7FF4E7AE012A8ED194F86C3043F073
:103D380008039DE70C0000000A2B3FF6A2AE01A283
:103D480052F823F0793D04088B3A04088B3A0408AA
:103D58008B3A04088B3A04088B3A0408F33D0408AC
:103D68008B3A04086B4104088B3A0408954104080F
:103D7800E38D022B7FF485AE94F83030002B3FF4AE
:103D8800B9AE012BA18D02D100297FF4B3AE18F092
:103D98001F0811D0B8F1020F1CD04FF0000805F130
:103DA8000C0A504607F061FBE38D984218D26FF079
:103DB8000B03FFF70BFAA1E600297FF49BAE94F8FA
:103DC8006C304FEA9308C3F3001308F0020848EA7E
:103DD8000308E4E7C9B2204608F0A1F88046DEE708
:103DE8004146504607F093F9A3E6628D18F01F0F7D
:103DF8004FEA1223D2B209D029462046FFF77AFDAE
:103E08008046B8F1000F7FF486AE92E6013B0E2B98
:103E18003FF637AE01A151F823F000BF613E040818
:103E28009D3E0408AD3E04088B3A04088B3A04080A
:103E3800F13F0408A93E04088B3A04088B3A0408A9
:103E48008B3A04088B3A04088B3A04088B3A040826
:103E58008B3A04088540040805F10C08B4F82EA034
:103E6800404607F002FB8346204607F06AF920B176
:103E780001287FF406AE616F00E0216F002900F091
:103E88001F82DA450A7828BFDA46524528BF5246CB
:103E980040462FE0002329462046FFF7B9FC48E6B4
:103EA8000123F8E70321204607F033FA8246002869
:103EB8003FF4E7AD07F0D4FAB4F82EB09AF815300D
:103EC800D8B99AF814808DF829308DF82880DAF856
:103ED800103005F10C0A1B885046ADF82A3007F05F
:103EE800C4FAC3455A460AA928BF4246824228BF97
:103EF8000246504607F0FAF81BE6DAF808204FF0B9
:103F080000088DF81530BF4B8DF814801340BE4A59
:103F1800934258D1102106A802F060F8021EFFF65D
:103F2800B0AD0AA9102A0DF1180CDFF8E0E2084636
:103F380028BF1022424501F1020133D892000346FE
:103F480002325FFA82F88DF8148005F10C0A0293A8
:103F5800504607F08AFAD845424605A928BF5A466E
:103F6800904228BF1046022883468046504628BF04
:103F78004FF0020BA8EB0B085A4607F0B7F84FEAC8
:103F880058030193029B9B4603EB58025A4521D1E3
:103F980018F0010F3FF4CDAD019A5046995C07F037
:103FA800AEF8C6E51CF8013B08F101084FEA131A00
:103FB80003F00F031EF80AA01EF8033001F802AC44
:103FC80001F8013CB6E79AF81480DAF810308DF859
:103FD8001480BAE71BF8011B5046CDE9022307F00D
:103FE80096F8DDE90223D1E7204607F0AAF8D4E9DC
:103FF8001C83002808BF984600232046CDF82A30A5
:10400800CDF82E300A238DF8283006238DF8293074
:1040180007F09CF8012805D06FF08503FFF7D6F864
:104028003B5086E5B8F1000F00F04A81B8F802303D
:10403800ADF82A3098F804308DF82C3098F805300F
:104048008DF82D3098F806308DF82E3098F8073016
:104058008DF82F3098F8113005F10C0840468DF88E
:10406800303007F002FAE28D9DF828300AA99A420A
:1040780028BF1A46824228BF024609E7204607F0B1
:1040880060F818B10128C7D1636F00E0236F002BD7
:1040980000F016815B88B3F5007FBDD95C4B04F155
:1040A8004C0B0A9300238DF82C30E36C9B4508BF1A
:1040B8000023BDF82A1093B15A7D0F2A08D11A7D22
:1040C8000A44ADF82A209DF82C2001328DF82C20C6
:1040D800226D934201D01B68EBE7BDF82A1005F169
:1040E8000C0A0191504607F0C0F9B4F82E800199E6
:1040F800884528BF88460AA9804528BF804650467B
:104108004246052A28BF0522019206F0EFFF019AD0
:10411800B8EB02083FF40DADE36C5B453FF409AD25
:10412800002B3FF406AD5A7D0F2A14D11A7D504654
:1041380019694245019328BF424606F0D7FF019B03
:104148001A7D424594BFA8EB0208A8EB0808B8F10D
:10415800000F3FF4EEAC226D9A423FF4EAAC1B68C4
:10416800DEE794F83030002B3FF4C4ACE38D012B2C
:104178007FF487AC05F10C08404607F076F9002873
:104188003FF415AE94F83810404608E708F01F08C9
:10419800B8F1010F7FF4AEAC204607F078FB002899
:1041A8003FF4A8ACB4F82CA0BAF1FF0F3FF669AC05
:1041B80043681B795345FFF464AC5FFA8AF30F2B0D
:1041C8003FF65FACE38D012B7FF45BAC05F10C0887
:1041D800404607F04AF900283FF4E9AD04EB0A032A
:1041E80093F83A10D0E7484607F047F918B9284637
:1041F800FFF7F0FA2CE52946204607F015FE48B1EE
:1042080028460FE400FF0200000302005F130508C0
:10421800050F0500A069036993F8801011F00401E7
:104228007FF4D4AB08F009FC054600283FF4EDAC58
:104238000146204607F0F8FD00283FF4C7ABDFE74A
:1042480052077FF5E2AC002B3FF4CDAB2846FFF7D1
:10425800C1FA94F83930002B3FF4C8AB94F82930F0
:10426800052B05D1618DA069C9B207F068F906462A
:1042780094F82930032B09D1638D022B06D1A18D27
:104288000022A069090A07F037F906460023B0465C
:1042980084F83930FFF7AABB6FF00B06B5E4E38D5D
:1042A800002B3FF4BAAC16F10C0118BF0121C9016B
:1042B80008F0E9FAFFF78ABB6FF00408FFF796BB2E
:1042C8006FF0150827E400BF0B78062B10B414D143
:1042D8000369D3F89C20EFF31184102383F3128829
:1042E800BFF36F8F00204B681860506A58B9C2E955
:1042F800083384F31188BFF36F8F0022002303482B
:1043080010BC0AF08ABB03605362F2E7340500244C
:104318002DE9FF4110264FF0FF334FF0FF3201A97E
:104328005C4804F06DF8039B1B69D3F89C40236A32
:1043380093B1EFF3118286F31288BFF36F8F216A6E
:1043480029B1606A0B688142236208BF636282F305
:104358001188BFF36F8FC9B99DF80430062BDAD0E6
:10436800072BD8D801A252F823F000BFC74304088E
:10437800BB430408E7430408CD4304080B4404087E
:10438800014404081F430408954404080B7E204692
:10439800D1F81E205D0609D1FFF702FB024600286E
:1043A800C5D00721204607F0C4FDC0E707F08CFB05
:1043B800F4E700220121204607F0BBFDABE700220D
:1043C8001146F8E794F86C3001A9204643F004033D
:1043D80084F86C3007F0DBF800220321EBE794F84F
:1043E8006C3001A9204623F0040384F86C3007F0F0
:1043F800CEF800220221DEE701A9204607F0C7F81F
:1044080089E794F86C30A76923F0040384F86C30CA
:10441800D7F808803B69BFF35B8FD3F8A030BFF3B0
:104428005B8F9A072FD5D8F83C3038469847D8F88C
:1044380024300021384698470546D8F84030384699
:104448009847ADB92946204607F03AFA054678B9A3
:10445800A06908F011FB831E84F830505842584177
:1044680094F86C3023F0680343EA401384F86C3006
:1044780000220421204607F05CFD002D3FF44BAFDD
:104488002A46072197E74FF0FF35F1E7029A062100
:1044980091E700BF3405002430B589B0002200231D
:1044A80000241E491E480094CDE906236FF0070337
:1044B8004FF48062CDE90334CDE90144194B04F08F
:1044C800F1FB194916480AF013FC184B18498B429E
:1044D80007D3184B002018498B4210D3002009B08D
:1044E80030BD03F11402BFF35B8F52E8000F42E8BE
:1044F8000045002DF9D11833BFF35B8FE7E703F1CF
:104508001402BFF35B8F52E8004F42E80005002D0C
:10451800F9D11833BFF35B8FDEE700BF802B00248F
:10452800D812002419430408590A05086006002413
:1045380078060024780600249006002438B5024640
:1045480005460949806908F0FDFA044648B985F826
:104558003800284607F050F9044610B1A86908F059
:1045680024FB204638BD00BFD142040870B505467B
:1045780081B101290BD10E4C0E4E16E06368284616
:104588001968FCF7EDF818B11834B442F6D30024D2
:10459800204670BD084C094EF7E76368284619683D
:1045A800FCF7DEF80028F3D01834B442F5D3EEE770
:1045B800780600249006002460060024780600246B
:1045C80070B50646EFF31181102383F31288BFF309
:1045D8006F8F1B4D2A6881F31188BFF36F8F526864
:1045E80092F86C20D20705D40A220023BDE8704057
:1045F80004F004BBEFF3118283F31288BFF36F8FCB
:104608002C682CB1696823688C422B6008BF6B60EA
:1046180082F31188BFF36F8F44B1606804F1080119
:10462800C3699847214607480AF099F92B6833B1BE
:10463800304600220023BDE8704004F0ABBA70BDDC
:104648009C1C0024F004002430B585B005460023E6
:104658001548CDE90012002203A903F03FFE0246E7
:10466800E8B9039BDDE900015D60083383E80300D6
:10467800EFF31180102383F31288BFF36F8F039B2E
:104688001A600A4A516861B9C2E9003380F3118897
:10469800BFF36F8F00220023054804F07BFA05B0B2
:1046A80030BD0B605360F1E7F00400249C1C00242B
:1046B8000000002438B54B780469202B4568206930
:1046C80008D0222B19D0124B6FF08502FEF77EFD21
:1046D8001A5010E0CB88072BF5D1D3681A684260CE
:1046E8009A8802819B79837207F048FC2246082148
:1046F800284607F02CFC002038BD4B880921C3F35D
:104708004002838103F00103027622464376EFE7F5
:104718000C00000008B513464A78212A14D133B991
:104728000C4B6FF00B02FEF751FD1A500AE0CA88D5
:10473800016903F10C00072A096928BF072204311F
:1047480006F0D4FC002008BD024B6FF08502FEF78E
:104758003DFDEAE70C00000073B5102504698DF8EB
:104768000710EFF3118685F31288BFF36F8F0122CC
:104778000DF10701E06B06F0B0F886F31188BFF37E
:104788006F8F012810D00AF0ADFAA8B10E4B0122A4
:10479800BFF35B8F53E8001F002903D143E80020D3
:1047A8000028F7D1BFF35B8F0A22002304F14800E9
:1047B80004F0F0F902B070BDA37E002BE6D0002112
:1047C8000A200AF055FBCCE7A41C002438B505697B
:1047D80000240E49EB6B05F14800C3E90144DC6095
:1047E8006B6BC3E90144DC600AF070FA05F17800EC
:1047F80007490AF01EFA074905F124000AF019FAD8
:10480800284607F0BBFB204638BD00BF21480408F6
:10481800F5480408A1C204082DE9F04750F8483CBF
:1048280000F14006074600215B683046D3F8009047
:1048380007F0F2FB002855D00121304607F0ECFBC9
:10484800804600284ED1BFF35B8F56E8003F43F007
:10485800200246E800210029F7D19B06BFF35B8FB1
:1048680040D4484607F054FC0022054600231E4861
:1048780006F022FC044650B93046052107F05FFCDB
:1048880038460A220023BDE8F04704F083B982467F
:104898000576428A5AF80C1F57F80C0C06F03DF8BA
:1048A80005460146504606F01BFC5DB1D9F80400E8
:1048B80007F03CFCB5FBF0F303FB1055B5FA85F89F
:1048C8004FEA58182146484607F82D8C07F0E9FAB0
:1048D80040B12046FEF77EFF30460521BDE8F0478F
:1048E80007F02DBCBDE8F0879C05002470B550F892
:1048F800782C00F110040346002152682046156800
:1049080007F08AFB002841D00121204607F084FBEC
:1049180000283BD153F8442C68689388918916691C
:104928005B1A9BB2F61A07F001FCB0422ED8BFF30F
:104938005B8F54E8003F43F0100244E8002100294F
:10494800F7D1DB06BFF35B8F20D4284607F0D2FBF4
:104958000022064600230E4806F0AEFB0446A8B126
:104968000676686807F0E2FB638A984203D26868B3
:1049780007F0DCFB83B221462846638207F091FAF0
:1049880020B12046BDE87040FEF724BF70BD00BFCF
:104998009C0500244FF48013094A0A4910B5D2F83F
:1049A800A40088420BD0581CF9D0013BF7D183F3FF
:1049B8001188BFF36F8F0424204602DFEFE710BD94
:1049C800006402580003008007B5084A92E8030013
:1049D800CDE9000106488268126822B1694690470D
:1049E80003B05DF804FB6FF05700F9E7D4FA040848
:1049F80008F304085F2838B5054607D9124A034664
:104A08000121124806F03EFA002038BD00F01F03CD
:104A180001249C40FFF7BEFF1F2D4FF0B0430AD87A
:104A2800D3F888309C434FF44072094B0CBF0120E7
:104A380000205A62E9E73F2D02D8D3F89830F1E711
:104A4800D3F8A830EEE700BF710A05082CFA04086D
:104A58000064025838B5012100F01F055F2804469C
:104A680001FA05F507D90F4A03460F4806F00AFA76
:104A78006FF0150038BDFFF78DFF1F2C4FF0B043C6
:104A880007D8C3F88850094B4FF4407200205A6287
:104A9800F0E73F2C02D8C3F89850F4E7C3F8A850C1
:104AA800F1E700BF710A05082CFA040800640258EF
:104AB800044B03EB40000023013320F8022B8B4208
:104AC800FADB7047DC0300242DE9F0410546002697
:104AD8000F4F4FF00108F4B26B78A34201D8BDE83C
:104AE800F0812B781C442046FFF784FF68B12046EC
:104AF800FFF7B0FF57F834303BB107EBC40204F0BE
:104B08001F04516808FA04F098470136E3E700BF2C
:104B1800A81C00244FF48013094A0A4910B5D2F89A
:104B2800A40088420BD0581CF9D0013BF7D183F37D
:104B38001188BFF36F8F0424204602DFEFE710BD12
:104B48000064025800030080034680B1B0FA80F286
:104B5800C2F11F02D2B2074931F912004FF0B04238
:104B6800D2F880100B43C2F88030FEF7F9B9FF2263
:104B7800F1E700BFDC03002438B50D460446FFF713
:104B8800C9FF032D0DD8DFE805F0021116204FF0FC
:104B9800B0431A6822EA04021A605A6822EA040238
:104BA8005A600E4B4FF440725A6238BD4FF0B04312
:104BB8001A682243F0E74FF0B0435A6822435A601C
:104BC8001A6822EA04021A60EBE74FF0B0431A6849
:104BD80022431A605A6814435C60E2E70064025892
:104BE80030B5B0B1B0FA80F3C3F11F03DBB20B48A4
:104BF80050F833408C4204D100EBC3056D689542F0
:104C080005D044B940F8331000EBC30042600020DF
:104C180030BDFF23EBE76FF00F00F9E7A81C002475
:104C280060B1B0FA80F3C3F11F03DBB2044A00217C
:104C380042F8331002EBC30251607047FF23F5E7D7
:104C4800A81C002438B500F003030F250C460433D4
:104C58009B009D4045EA9005FFF75CFF05F00303C4
:104C68002A0C92FAA2F29B0003F1B043D3F808147D
:104C780003F5806321EA15410AB1B2FA82F2944041
:104C88004FF440720C439C60014B5A6238BD00BF20
:104C98000064025800F003020F230432920093408C
:104CA800094A43EA900000F00303023352F8232034
:104CB800030C02EA104293FAA3F008B1B0FA80F0AC
:104CC80022FA00F0704700BF00040058F8B50369E5
:104CD80000AF0C4603F1A005BFF35B8FD3F8A030FB
:104CE800BFF35B8FC3F38003994218D1184A6E460D
:104CF800184B88B0002918BF13466A461649CDE9F3
:104D080005134FF40073ADF81C30144B42F8103FF4
:104D180000234FF4E4511248FDF720FBB546BFF3DA
:104D28005B8F5CB155E8003F43F0040345E800326F
:104D3800002AF7D1BFF35B8FBD46F8BD55E8003FA9
:104D480023F0040345E80032002AF3D0F6E700BF59
:104D5800B10A0508B90A0508C00A050803000001D8
:104D6800ACFA04082DE9F0470546894690461F46E7
:104D7800D0F808A007F037FC0446C0B1067DF30759
:104D880009D5037E16480121164A06F07BF86FF014
:104D98007700BDE8F0873B464246494607F0DDFB11
:104DA80040B9237E104A01210D4806F06BF86FF0D8
:104DB8001200EEE79DF8203026F0060684F81980E8
:104DC80021466783284623772675DAF818309847EE
:104DD800B0FA80F3227D5B0963F300022275D8E7FD
:104DE800ACFA0408D20A0508EC0A050870B50546AD
:104DF800866807F0F8FB0446D0B1037DDB0708D4CA
:104E0800037E0D4801210D4A06F03CF86FF077004B
:104E180070BD0146F3692846984738B1237D03F0F1
:104E28000103227D63F300022275F1E70346F8E7E8
:104E38006FF01200ECE700BFACFA04080E0B05088F
:104E4800F8B5876805460C46FB6B9847286907F054
:104E5800B8FBD0B12146284607F0C5FB0646B8B1D5
:104E6800037D9B0705D0037E0B4A03210B4806F000
:104E780009F8346824B1BB68314628469847044687
:104E880028463B6C98472046F8BD4FF0FF34F7E7BB
:104E98006FF01204F4E700BF290B0508ACFA040808
:104EA8002DE9F341D0F80880174605460E46D8F894
:104EB8003C3098470022002339460B48FEF70CFC8B
:104EC800044670B9094A3B4601210948009605F095
:104ED800E3FF2846D8F840309847204602B0BDE89E
:104EE800F0810676F5E700BFC00500244A0B0508E7
:104EF800ACFA040813B503690C46097ED3F8A4007C
:104F080008F0DEFB237E48B1094A012100900948D8
:104F180005F0C2FF6FF0040002B010BD5B0601D1BE
:104F28000020F9E7237D43F002032375F8E700BF6B
:104F3800780B0508B4FA0408F8B591F918300E7E14
:104F4800002B01DB0020F8BD7306FBD047684C8BB3
:104F5800B7F84830C4F30A040069A34295BF033385
:104F680003349B08A308D0F8A440402BD4F8E804E5
:104F780098BF5B009D008AB9A8424FF0000224BF89
:104F8800401BC4F8E8042046097E01F07F0108F0C0
:104F98002CFC0028D6D06FF00400D4E7BA68121AA7
:104FA800AA4207D20A4832460A4907F069FE6FF05A
:104FB8000B00C8E79AB206F07F01204608F015FCFE
:104FC8000028E8D1D4F8E8342B44C4F8E834B9E729
:104FD800B4FA04089F0B0508F7B546680746036945
:104FE8007468D3F8A450640028469834A1B2A40089
:104FF80008F01AFC1022C5F8E844002128460124CC
:1050080008F0F3FBD5F8E8344033C5F8E8347368A2
:105018009C420ED3284608F05DFA054680B16FF031
:10502800040402461549164807F02AFE204603B034
:10503800F0BDE1B200222846013408F0D6FBE6E7CD
:1050480002460146009040233846FFF78BFE04468F
:1050580028B12A460B490A4807F012FEE6E702463D
:105068000090402380213846FFF77CFE044608B1B3
:105078008022EFE73069FDF773FFD7E7C20B050819
:10508800B4FA0408D70B050838B503690446D3F801
:10509800A45043681869FDF771FF00212046FFF707
:1050A800A5FE38B10C490D4807F0EFFD6FF0040478
:1050B800204638BD20468021FFF798FE0446002888
:1050C800F0D1284608F026FA02460028F0D0044914
:1050D800024807F0D5FDE9E7F10B0508B4FA040822
:1050E800140C050838B503690546D3F8A4402046D2
:1050F80008F075FB024630B10D490E4807F0C0FDB7
:105108006FF0040038BD0021142009F0B1FE2046DC
:1051180008F068FB04460028F2D101462846FFF74C
:10512800D5FD22460221284607F096FA2046E9E7EF
:10513800280C0508B4FA040870B5036904464568E4
:10514800D3F8A40008F0B1F9024618B11A491B486F
:1051580007F096FD6668F069D8B143689847044639
:10516800B8B117490246154807F08AFD002C19DB2B
:1051780000F010FC024618B11249104807F080FDF3
:105188002869FDF70FFF10B12869FDF7F7FE002029
:1051980070BD0D48716983685B6843B90B4907485E
:1051A80007F073FD0A49054807F06FFDE0E79847E7
:1051B8000028DDD0F2E700BF490C0508B4FA04085E
:1051C8005F0C0508B20C050808F304087D0C0508F7
:1051D800990C05082DE9F341036906464768D3F899
:1051E800A45000F0A1FB044640B13B4902463B48AD
:1051F80007F046FD204602B0BDE8F08176683848E1
:1052080096F84A30D0F80880012B13D97169D8F87C
:105218001830083153B93349304807F036FD324960
:105228002E4807F032FD6FF00404E3E72246984762
:105238000028F0D1D8F8003071690BB92B49EBE799
:105248002748984704460028F8D196F84A30012B99
:1052580014D97169D8F80C3008310BB92449DBE747
:1052680001AA1F4898470028F8D1019A214B9A4271
:1052780004D02149194807F003FDD0E7F06950B17F
:1052880003689847064630B11C490246134807F0A0
:10529800F7FC002EC3DB40F2E4420021284609F067
:1052A80013FF3B6828462B607B682B7140232B72C9
:1052B8003B6B6B727B6BEB7108F089F8024620B18F
:1052C8000F49064807F0DCFCADE7284608F022F94C
:1052D80000288FD0A7E700BFD00C0508B4FA04084F
:1052E80008F30408ED0C0508870D05080F0D0508DF
:1052F8002A0D0508006CDC024E0D05086A0D05082C
:105308009F0D05082DE9F047D0F810908AB00646A1
:105318004568D9F8A4704FF000084FF0400A6B6850
:10532800434555D84FF000084FF0400A6B68434595
:1053380000F2898099F8803023F06A0343F06A0309
:1053480089F880306B6B2BB999F8803043F00103F2
:1053580089F8803007F5B3610823042207F5AE60A9
:10536800C7F8E46407F59E6409F048FBD5E9101214
:105378004FF000084FF000096FF0070301200027E5
:105388000096CDE90330CDE90689564B2046CDE994
:10539800017703F087FC3168204609F0A9FCEB6827
:1053A800984709AA3946A86907F00BFE041E07DBCF
:1053B800099B3A461979186807F015FE041E73DA36
:1053C800A31C71D048492246484807F059FC33E0ED
:1053D800EB6B18F0800F08F07F004FEA481103EBE1
:1053E80048139A7C83F818800CBF42F0400242F0C0
:1053F80020029A749A7C60B942F001029A74EB6BAD
:10540800B8F1000F0BD0EB6BB5F848200B441A82AB
:1054180007E022F00E0242F00E029A74F3E7A3F8B6
:1054280010A0EB6B3046194407F0EFF8044638B18A
:105438002F492E4807F029FC20460AB0BDE8F0871E
:1054480008F101086BE7AB6B68F07F0218F07F0F7B
:105458004FEA481103EB48131A769A7C42F020026F
:105468009A740DD1D2B242F001029A74AB6BB8F1C2
:10547800000F0CD0AB6BB5F848200B441A8208E03B
:105488009A7C22F00E0242F00E029A74F2E7A3F818
:1054980010A0AB6B3046194407F0B7F80446002853
:1054A800C6D108F1010841E7A86A08B90024C3E792
:1054B800283509F0B9F930B90E496FF015040B48D1
:1054C80007F0E3FBB8E74FF4B011284607F098FB64
:1054D8000028EBD008496FF00404044807F0D5FB16
:1054E800AAE700BFBD550408CF0D0508B4FA0408A3
:1054F800B30D0508ED0D0508090E050873B5D0F8BC
:10550800A46008460C46154607F076F800BB237ED3
:10551800298A802BEA680B4602D1402928BF4023FC
:10552800D018C91AE86030462982217E08F0AEF802
:1055380050B1237E074A01210090074805F0ACFCD2
:105548006FF0040002B070BD0121204607F058F842
:105558000020F7E7260E0508B4FA040813B50B7EF9
:105568000C46D0F8A400CBB9537EDB071CD4538A71
:10557800C0F8EC34538A402B28BF4023D268217EE0
:1055880008F05FF860B1237E084A012100900848BE
:1055980005F082FC6FF0040002B010BD538AEDE7FD
:1055A8000121204607F02CF80020F5E74D0E0508EC
:1055B800B4FA04082DE9F34703690746D3F8A46051
:1055C8004FF0FF334FF0FF3201A906F5AE6002F04D
:1055D80017FF9DF80430012B60D0022B07D0002B59
:1055E800EED106F29C41384607F069F8E8E79DF8E5
:1055F8000590D6F8E48449F0800A4046514606F002
:10560800F2FF0546002106F0FBFF284607F017F8D1
:1056180004460028D4D019F07F0F19D1038ABBB1F2
:10562800402BC2684FF08001304628BF40231D46FA
:1056380008F02CF8024620B13E493F4807F020FB0D
:10564800BEE7238A5B1B2382E3682B44E360B7E74A
:10565800204606F0F8FF814660B1204606F0F7FFC5
:10566800E26800235146304608F010F80246002848
:10567800A6D0E1E7284606F0DEFF4A460146404646
:1056880006F0F6FF284606F0DAFF0246002897D013
:105698002946D8F81000FFF731FF91E79DF80590EB
:1056A800D6F8E4844946BDF806A0404606F09BFFBC
:1056B800054606F0C4FF044648B920494A461E4834
:1056C80007F0DEFA2146284606F09AFF78E75146A9
:1056D8000C3005F005FDB9F1000F16D1BAF1400FF5
:1056E80013D1228AD6F8EC349A420ED2E068638A43
:1056F80061699B1A0244411A30465B1A297E402B85
:1057080028BF402307F09DFF5AE7284606F093FF7D
:1057180000220146404606F0ABFF284606F08FFF00
:10572800024628B12946D8F81000FFF717FF47E7C7
:105738000146C8E7730E0508B4FA0408920E050876
:10574800F7B54D7E012203690C4605F00305D3F831
:10575800A4706B1E022B88BF0025FFF7EDFB0646E1
:1057680088B9628B2B46217E3846C2F30A0207F0BD
:105778000AFF40B1237E6FF004060090034A01211E
:10578800034805F089FB304603B0F0BDAB0E0508B1
:10579800B4FA040813B503690C46D3F8A40007F05B
:1057A800DFFE40B1054A234600900121044805F078
:1057B80073FB6FF0040002B010BD00BFCE0E0508E9
:1057C800B4FA040837B5036905460C46097ED3F8D0
:1057D800A40007F00DFF024630B92146284603B061
:1057E800BDE83040FFF7A8BB237E054A01210090A1
:1057F800044805F051FB6FF0040003B030BD00BF52
:10580800F40E0508B4FA040873B5036905460C4696
:10581800097ED3F8A40007F08AFF50B1237E174A07
:1058280001210090164805F037FB6FF0040002B024
:1058380070BD237D60F341032046237506F0FFFE0B
:10584800064608B90020F2E7204606F0D5FE94F98E
:105858001830002B07DA0028F4D13246214628698F
:10586800FFF74CFEEEE70028ECD1324621462869C6
:1058780002B0BDE87040FFF771BE00BF180F050801
:10588800B4FA040837B50D46044607F0F7FE0123BD
:105898008DF805508DF80430ADF80600002200237D
:1058A80001A904F5AE6009F0B8F818B10249034837
:1058B80007F0EBF903B030BD3F0F0508B4FA040850
:1058C800002307B5ADF8063002238DF805108DF8D2
:1058D80004300022002301A900F5AE6009F09DF80C
:1058E80018B10349034807F0D0F903B05DF804FB89
:1058F8003F0F0508B4FA0408002307B501930022F6
:10590800002301A900F5AE6009F087F8002803DA42
:105918000349044807F0B9F903B05DF804FB00BF78
:105928003F0F0508B4FA040838B54FF0FF324FF0BE
:10593800FF33134802F0EEFE0546F0B9114A13682A
:10594800591C1160B3B9104CE36843F08073E360ED
:10595800E36823F00073E360E3685B010AD40B4A51
:1059680003210B4805F085FA00214FF47A7009F0FD
:105978007FFAF1E7024802F099FE284638BD00BFD9
:105988008C050024681F002400480258700F050881
:1059980094FA040810B54FF0FF324FF0FF330A486D
:1059A80002F0B8FE044660B9084A1368013B136068
:1059B80023B9074AD36823F08073D360024802F002
:1059C80075FE204610BD00BF8C050024681F00240A
:1059D80000480258044A81680020D2F8003123EABE
:1059E8000103C2F80031704700440258074A82B0E8
:1059F80083680020D2F800111943C2F80011D2F8C8
:105A0800002113400193019B02B0704700440258E3
:105A1800324B10B518680B88C3F30B03132B37D818
:105A280013B96FF0850032E0013B122BF9D801A4BD
:105A380054F823F0D35A0408C55A04082B5A04080A
:105A4800895A0408CB5A04082B5A04082B5A04080C
:105A5800D35A0408CF5A0408D35A04082B5A040806
:105A68002B5A04082B5A04082B5A04082B5A0408EA
:105A78002B5A04082B5A0408BD5A0408BD5A0408B6
:105A8800174810600968B1F5805F20D2002010BD6A
:105A9800D42B0FD003F62873C3F30B031C2BC0D8E9
:105AA800012404FA03F30F4C234205D140F21114E8
:105AB8002342B6D04008E4E78008E2E74FF400400C
:105AC800DFE70948DDE70948DBE70948D9E7C1F31B
