:020000040810E2
:10000000802B0030C1271008D96B1008AD271008CD
:10001000AD271008AD271008AD271008000000001C
:10002000000000000000000000000000F52710089C
:10003000AD27100800000000B1291008513A10083F
:10004000292A1008292A1008292A1008292A100804
:10005000292A1008292A1008292A1008292A1008F4
:10006000292A1008292A1008292A1008292A1008E4
:10007000292A1008292A1008292A1008292A1008D4
:10008000292A1008292A1008292A1008292A1008C4
:10009000292A1008292A1008292A1008292A1008B4
:1000A000292A1008292A1008292A1008292A1008A4
:1000B000292A1008292A1008292A1008292A100894
:1000C000292A1008292A1008292A1008292A100884
:1000D000292A1008292A1008292A1008292A100874
:1000E000292A1008292A1008292A1008292A100864
:1000F000292A1008292A1008292A1008292A100854
:10010000292A1008292A1008292A1008292A100843
:10011000292A1008292A1008292A1008292A100833
:10012000292A1008292A1008292A1008292A100823
:10013000292A1008292A1008292A1008292A100813
:10014000292A1008292A1008292A1008292A100803
:10015000292A1008292A1008292A1008292A1008F3
:10016000292A1008292A1008292A1008292A1008E3
:10017000292A1008292A1008292A1008292A1008D3
:10018000292A1008292A1008292A1008292A1008C3
:10019000292A1008292A1008292A1008292A1008B3
:1001A000292A1008292A1008292A1008292A1008A3
:1001B000292A1008292A1008292A1008292A100893
:1001C000292A1008292A1008292A1008292A100883
:1001D000292A1008292A1008292A1008292A100873
:1001E000292A1008292A1008292A1008292A100863
:1001F000292A1008292A1008292A1008292A100853
:10020000292A1008292A1008292A1008292A100842
:10021000292A1008292A1008292A1008292A100832
:10022000292A1008292A1008292A1008292A100822
:0C023000292A1008292A1008292A100881
:10023C0053B94AB9002908BF00281CBF4FF0FF3141
:10024C004FF0FF3000F00CB8ADF1080C6DE904CEA6
:10025C0000F01AF8DDF804E0DDE9022304B0704781
:10026C00704700BF10F8012B11F8013B012A28BF81
:10027C009A42F7D0D01A7047034613F8012B002A84
:10028C00FBD1181A013870472DE9F0478C468E4681
:10029C00089E154604461946002B40F0D080724546
:1002AC0047D9B2FA82F74FB1C7F120030EFA07FC17
:1002BC0020FA03F3BD4043EA0C0CBC404FEA154E48
:1002CC00A8B2BCFBFEF8230C0EFB18CC08FB00F903
:1002DC0043EA0C43994528D9EB1808F1FF3204D2B4
:1002EC00994502D9A8F102022B44A3EB0903A4B24D
:1002FC00B3FBFEFC0EFB1C330CFB00F044EA034486
:10030C00A04214D92C190CF1FF3304D2A04202D90B
:10031C00ACF102032C44241A43EA02401EB1FC4007
:10032C00002334607360BDE8F0874246DDE7634626
:10033C00F1E7002A79D0B2FA82F3002B3FD01946AC
:10034C00C1F1200302FA01F52EFA03F20EFA01FEB6
:10035C0020FA03F343EA0E034FEA154E00FA01F4B8
:10036C00B2FBFEFCAFB20EFB1C201A0C0CFB07F808
:10037C0042EA004290455AD9AA180CF1FF3004D237
:10038C00904502D9ACF102002A44A2EB08029BB2C0
:10039C00B2FBFEFC0EFB1C220CFB07F743EA0243EC
:1003AC009F4246D9EB180CF1FF3204D29F4202D97E
:1003BC00ACF102022B44DB1B42EA004202E0AEEB42
:1003CC00020301224FEA154EAFB2B3FBFEFC200C28
:1003DC000EFB1C330CFB07F840EA034398452AD963
:1003EC00EB180CF1FF3004D2984502D9ACF10200A5
:1003FC002B44A3EB0803A4B2B3FBFEFC0EFB1C3393
:10040C000CFB07F744EA0344A74216D92C190CF14C
:10041C00FF3304D2A74202D9ACF102032C44E41BF3
:10042C0043EA00400F46114678E71F2188E76046F3
:10043C00ABE76246BFE76046DBE76346EFE7734531
:10044C0006D916B9002108466DE7C6E9000EF9E792
:10045C00B3FA83F787B9734501D3824207D8841A5C
:10046C006EEB030301209C461EB900215BE7384666
:10047C00FAE7C6E9004CF8E7C7F1200CBB4022FABA
:10048C000CF51D4320FA0CF12EFA0CF30EFA07FEB4
:10049C0041EA0E014FEA154900FA07F4B3FBF9F8EB
:1004AC001FFA85FE09FB18300B0C08FB0EFA43EA09
:1004BC0000439A4502FA07F240D9EB1808F1FF30D5
:1004CC0004D29A4502D9A8F102002B44A3EB0A03EB
:1004DC0089B2B3FBF9F809FB183308FB0EFE41EAAD
:1004EC0003418E452CD9691808F1FF3304D28E458F
:1004FC0002D9A8F10203294443EA0040A0FB029868
:10050C00A1EB0E014145CE46434602D306D14C45E4
:10051C0004D2B9EB020E68EB05030138002EA4D00F
:10052C00B4EB0E0261EB030101FA0CFC22FA07F3A7
:10053C004CEA0303F940C6E9003196E74046C5E7AB
:10054C004346D9E740F2FF33994228BF194610B50C
:10055C000A460C460146064807F0FDFC044A0023F7
:10056C001355044B1C600448BDE8104004F018B946
:10057C00280E0030080C00305C01003008B5054B2B
:10058C0001221A70044804F00BF9BDE80840034836
:10059C0005F061BD281200304C010030868B10082C
:1005AC0037B5254805F057FD244800F079FD041EA9
:1005BC0009DA14F1780F06D02148214605F04BFDDD
:1005CC00204603B030BD1F4A1C48694600F088FD28
:1005DC00041E02DA1C482146F0E71C4805F03BFDDE
:1005EC001B484FF0FF324FF0FF3304F00DF94FF082
:1005FC00FF324FF0FF33174804F006F9164917483D
:10060C0005F029FD16491448FFF72CFE0546002875
:10061C00EDD1144805F01FFD13491022684600F077
:10062C0081FD041E02DA11482146C7E7104805F087
:10063C0012FD2C46C4E700BFA18B100840831008A4
:10064C00CC8B100800000030F28B1008188C1008AE
:10065C004C0100305C010030280E00303A8C100840
:10066C004F8C10085E8C1008918C1008A18C10080F
:10067C00B78C10082DE9F84F8A4600AF002974D0CA
:10068C0004680E1F361BF50826F0070604EB060857
:10069C00B8F802B01BF0010B16D1E94688B06A46D7
:1006AC00334BCDE90531032342F8103F31485B460B
:1006BC004FF4C25101F006FBCD468BF31188BFF30A
:1006CC006F8F0423184602DF2946204605F03FFBB6
:1006DC00284434F83030C01A854217D0E94688B027
:1006EC006A46254BCDE9053A032342F8103F2148D1
:1006FC0000234FF4C25101F0E5FA0023CD4683F3F9
:10070C001188BFF36F8F0423184602DFB8F802304C
:10071C0023F00103A8F802302946204605F017FB08
:10072C0005EB000804EBC8035B88DA0708D44146E4
:10073C00204605F055FB42462946204605F095FB20
:10074C00A65BAE1B04EBC6035B88DB0709D4314602
:10075C00204605F045FB2A463146204605F085FB30
:10076C0035462946204605F0F7FABD46BDE8F88F18
:10077C00388D1008148810080F8D10082DE9F04FD3
:10078C0091B08407009302F004030293C2F3C203F6
:10079C0003F10103DDF868A0039205460E460593AC
:1007AC0040F09D81041D00284AD101F00706341D3C
:1007BC00C6F10806009B00275A1E4FF004084FF0A4
:1007CC00FF3301930497B946BB4643460DB10099DC
:1007DC0021600598002800F3D78090480099814249
:1007EC0003D38F488142C0F0CF80039911F0020CE3
:1007FC00A4EB050040F0D680B9F10F0F00F2CF80CA
:10080C00002D00F0D68009F140010DEB010EC0F374
:10081C00870001990EF8200C0EF8101CBCF1000F8B
:10082C0000F0C38060F07F000EF8200C013709F156
:10083C000109C5F10801043406914FF6DA7E8CE00B
:10084C000729B7D86FF01B0011B0BDE8F08F7A28DC
:10085C005BD84B280FD8472857D829282ED82528BD
:10086C0050D052D8202818BF23280CBF4FF0010BB2
:10087C004FF0000B71E04C382E2846D8DFE800F022
:10088C006D454545454545454545454548454545E1
:10089C004545454545564548485656566D486A4562
:1008AC006D4518481845457F7C48454548457C00B2
:1008BC0000204FF0000B4FF0040835E02A38C0B28E
:1008CC00012101FA00F010EA0E0F46D110F0625C23
:1008DC002CD110EA010B40D06046013C4444B4FBDF
:1008EC00F8F408FB04F425B1A3EB050CA444B445BF
:1008FC00A8D8002870D00599013905915AF8041B25
:10090C00009163E70199013901914FF0000B24E04C
:10091C0012F8010C6C2834D112F8023C00206C2B1C
:10092C008346C8D14FF008084346D6E70AF1070AB8
:10093C002AF0070A0734FAE802BC24F0070435B1A0
:10094C0006982044B0423FF67DAFC4E900BC0834A1
:10095C004FF0000B4FF00808434612F8010F002827
:10096C0053D0BBF1000F7FF472AF2528F5D1019B5A
:10097C00013301934FF0010B4FF00408ECE758469C
:10098C0097E700208346A8E7039988077FF551AFC6
:10099C00601B4FF0010CB0F5007FFFF42DAF6FF032
:1009AC00150051E74FF0000CF5E704980130049066
:1009BC003DE7BCF1000F01D0013638E70298023652
:1009CC0000287FF434AF0098CDE90632FFF754FCD1
:1009DC00DDE9063206442AE7042B08D10AF10400AB
:1009EC0015B1DAF80010216004348246B5E70AF13B
:1009FC00070323F0070303F1080A1DB1D3E9000133
:100A0C00C4E9000108340823A7E7631BB3F5806F22
:100A1C00C5D23DB9A6F10804E01815E7B880100856
:100A2C0094981008029A28609B082B709DF810303F
:100A3C00AAB1EB70AF702FB108A80022C5F1010C60
:100A4C0091450ED1C5F101030DF120084FF0000ABC
:100A5C0001930DF1300BD14512D1601BF4E66B7094
:100A6C00E8E710F8013B190608D50CEB040EB64567
:100A7C0003F07F033FF6E6AE04F8013B0132DFE7FB
:100A8C001FB198F90020002A17DB029BD3B11AF88A
:100A9C000B2004F8012B0022019B18191044B042C2
:100AAC003FF6D0AE98F8000004F8010B00990392C1
:100ABC00204607F050FA039A14440AF1010A08F18F
:100ACC000108C8E798F8002055F822300093029BE3
:100ADC0045F822300098FFF7CFFB421CDCE76FF0A3
:100AEC000D00B1E62DE9F04F97B000AFC7E90A321F
:100AFC0005468A4649B903784678807800EB83002E
:100B0C002844564524D8A0EB050AD7F8803095F830
:100B1C000280D7F8804003F00103FB61EB787B6225
:100B2C00B8F1000F0CBF002404F001041BB1D7F87E
:100B3C0080309A0715D4A4B9FB6A1BB1BA6A514626
:100B4C0028469847564630465C37BD46BDE8F08F80
:100B5C00441C2046FFF790FB013020440AF1010AA7
:100B6C00CFE7D7F88030C3F3C0033B622B78BB616F
:100B7C009B003B616B687B61BB6905EB830BFB6A7C
:100B8C00002B77D15646D844BCB11C461BF8013B10
:100B9C0055F82300FFF770FBD7F88430013043B1D0
:100BAC00D7F88830A34282BFD7F8843023F81400DA
:100BBC000134C3450644E9D1D846D7F8803013F048
:100BCC00050F0CBF4FF0020B4FF0010B4FF000095B
:100BDC007B6A9945B7D298F8013055F823A0AE4BF3
:100BEC009A4508F10208C0F04B81AC4B3A6A9A4521
:100BFC002CBF002301230AB318F8021C7869FB628E
:100C0C0005F008FAFB6AC8B1EA468AB06A46A44BFA
:100C1C0005937B69CDE906314FF40073ADF82030B4
:100C2C00A04B42F8103FA04800234FF4125101F0A2
:100C3C0049F8023ED54609F10109C9E723B1FB6920
:100C4C0033B9A6EB0B06F6E7D7F880309B07F2D545
:100C5C005046FFF711FBD7F884304BB1D7F88830EA
:100C6C009C423FBFD7F88420431C22F81430013437
:100C7C000644E0E7002C69D1B8F1000F6CD0D7F82E
:100C8C00803058076BD5C14607F14800424659469B
:100C9C0007F061F90BEB0803FB6000220233796A61
:100CAC008A425ED3D7F8802095F801B0F969920793
:100CBC0004EB0B03DBB254BF4FEA590200220029AC
:100CCC0040F0A680D7F8801011F0040F14BF4946ED
:100CDC0000216B70A970EA703969BA6AFB6A284600
:100CEC009847061EFFF62FAFBB692B707B6AEB7023
:100CFC004946BA6AFB6A85F801B085F8028007F1AB
:100D0C0048009847B0F10009C0F2B6803B697A6A96
:100D1C00786A03EB4201FB68BA6A414403EB40007A
:100D2C00AAEB0101FB6A98470028C0F2A780B144E6
:100D3C0009EB00064FF0000B07F1380AA34569D305
:100D4C000021BA6AFB6A08469847FCE6444607F15C
:100D5C0038004FF0000999E74446C1469AE7A1468E
:100D6C0098E713F8016CDFF830C155F8260013F83A
:100D7C00021C6045C0F08A80DFF820C16045386AEB
:100D8C002CBF4FF0000B4FF0010B38B17869C7E95D
:100D9C00013205F03FF9D7E90132F0B9BBF1000F90
:100DAC001ED0F96949B1611C04F1280007F1300427
:100DBC00041904F8206CCCB20FE0D7F88010490766
:100DCC000BD509F1280007F1300C09F1010100EBFA
:100DDC000C0909F8106C5FFA81F9013202335EE7F5
:100DEC00D7F880008007DED409F1280C07F1300E0B
:100DFC00F44409F101000CF8101C07F1580151FAE8
:100E0C0080F009F102095FFA89F900F8106CE4E747
:100E1C0000215EE71BF80A3087F8373055F823902D
:100E2C00D7F884302BB3D7F888309B4521D2D7F82C
:100E3C00843033F81B80BA6AFB6A012107F1370052
:100E4C00984700281ADB0644B8F1000F06D1484633
:100E5C00FFF712FA00F101081FFA88F8BA6AFB6A68
:100E6C00414648469847002808DB06440BF1010B25
:100E7C0064E74FF00008DEE74E4664E6064662E69D
:100E8C003B6A002B3FF4E0AE0023B5E6386A00283D
:100E9C00A6D04FF0000B79E7B88010089498100892
:100EAC00658D100804000001CC871008014B1860F8
:100EBC00704700BF1C00003080B505460E46174633
:100ECC00984604F043F9034601F0BAFDDFF8189098
:100EDC00044649F80030424630463946A84754F893
:100EEC00090001F049FD00BF08000000054B5A68DD
:100EFC0022F002025A605A6822F001025A60002065
:100F0C00704700BF0010005C08B541680548836855
:100F1C001B680C311BB1984700EAE07008BD6FF0FC
:100F2C005700F9E780811008192810B502D9002460
:100F3C00204610BD044B53F82040204606F0AFFD70
:100F4C000028F5D1F3E700BF388910082DE9F041EE
:100F5C004068DFF8D0C04568DFF8CCE001248C4055
:100F6C0002F030064FF48017DCF8A00070450CD06E
:100F7C00781CF9D0013FF7D187F31188BFF36F8F3D
:100F8C004FF00408404602DFEEE76F68C2F38010B2
:100F9C0027EA0407884038436860D5F8088004FACB
:100FAC0001F000EB400EC2F3C11C00FB0CFC28EA64
:100FBC000E084CEA080CC5F808C0D5F80CC0C2F3F2
:100FCC00412242432CEA0E0C42EA0C02202E6FEA1C
:100FDC000E07EA600CD1072917D800FA01F22C6A27
:100FEC008A40C2EB021124EA01015A430A432A62E5
:100FFC002B6836091F4046430A4B3E434FF4807220
:10100C002E601A620020BDE8F081240A64436A6AEB
:10101C006443C4EB041122EA0102634313436B6281
:10102C00E6E700BF0064025800010080194B1A4922
:10103C00D3F8D82042F4804282B0C3F8D820D3F839
:10104C00D82002F480420192019AD1F800246FF367
:10105C00132242F40142C1F80024D1F8002442F0DA
:10106C000102C1F80024D3F8E02042F00072C3F86A
:10107C00E020D3F8E02002F000720092009AD3F83E
:10108C00A0301B0703D4054A1369002BFCDA02B00D
:10109C00704700BF004402580040024000640258F0
:1010AC0010B530B90B480C4905F04EFA6FF015002D
:1010BC0010BD836833B90748084905F045FA6FF04D
:1010CC000400F5E71B6813B1BDE81040184718463B
:1010DC00EEE700BFDC871008E48E1008F58E1008D0
:1010EC0070B508B101B132B90B480C4905F02CFAB6
:1010FC006FF0150070BD84680CB1256935B90648D0
:10110C00074905F021FA6FF00400F3E741F8040BEE
:10111C002369BDE870401847DC871008138F10084E
:10112C00F58E100870B51346044630B910481149B5
:10113C0005F00AFA6FF0150070BD006830B90C4864
:10114C000D4905F001FA6FF00100F5E782680AB16C
:10115C00956835B90648094905F0F6F96FF00400B1
:10116C00EAE70A46AC466168BDE87040604700BFDC
:10117C00DC8710083F8F1008508F1008F58E100870
:10118C0030B585B00C460E490291D0F8CC1105460D
:10119C00CDE9003100F1F0014FF0FF33204602F0B1
:1011AC00AFFE50B9012384F86C30D5F8C83123B1A7
:1011BC00204605B0BDE83040184705B030BD00BF33
:1011CC00676610082DE9F04F05694668814605F5FC
:1011DC005B77012389B0BFF35B8F57E8002F002AA0
:1011EC0003D147E800310029F7D1BFF35B8F0CBF67
:1011FC001A46002240F0B380B368B16A05F5F47862
:10120C001C1F104605F07DFA844271D8013A00F09B
:10121C00A080B2FA82F24FF00044D44072680732D8
:10122C0022F00302C5F83422B16A204605F069FAAF
:10123C00C5F83802B36A6343033323F0030302EBAC
:10124C004302230103EB4403093323F0030303EBB1
:10125C00C403C5F82C221A440832C5F82822736836
:10126C00C5F824323F4BC5F83042C5E9AB63404664
:10127C00316800F031FA0446002837D1D9F804A0BF
:10128C00D9F80030D9F810B00593DAE907340BF52A
:10129C003279012BCDE90600484608BF103C06F018
:1012AC0091FCDAF82410304805AB009323464FF438
:1012BC00886404FB01014FF48062484603F008FC8B
:1012CC002A490BF52E7006F036FCDAE90501836825
:1012DC005C684CB1264A5B46A047044630B9DAE953
:1012EC00050183681B692BB96FF05704002129E0B5
:1012FC00013286E70122984704460028F6D11D4B9F
:10130C00C5F8C8311C4BC5F8CC311C4B0393D5F830
:10131C0038320293D5F83432CDE900832846B26ACC
:10132C00D5F8681305F50F7300F09EF904460028F4
:10133C00DCD105F1F00002F089FE0028C5F870033D
:10134C000ADB0221384605F0C0F9204609B0BDE899
:10135C00F08F6FF00B04C9E76FF01504C6E76FF060
:10136C007704F2E7C166100840120030A766100837
:10137C009B66100809141008ED6710088D131008EF
:10138C002DE9F04190460C4699B30B788BB3D0F80D
:10139C00BC50A5F5DE7614354FF0FF324FF0FF331D
:1013AC00284603F03BF92146304605F058F907462C
:1013BC00A0B93046104905F052F9064620B9284626
:1013CC00BDE8F04105F07FB91F222146483006F0F8
:1013DC00EAFD86F86770C6F86880F0E7284605F0E5
:1013EC0072F94346224639463046BDE8F041FFF7D4
:1013FC00C7BEBDE8F08100BF1997100813B50446AD
:10140C0040B100230122CDE90032074BD0E909128B
:10141C0002F04AFD236F1B6823B1606F02B0BDE878
:10142C001040184702B010BD1997100813B50446A8
:10143C0008462169BFF35B8FD1F86C13BFF35B8F48
:10144C00022910D193B1A0B10121CDE9003113468D
:10145C00D0E9091202F028FD074B984208BF6FF043
:10146C000B0002B010BD6FF00F00FAE76FF04C00EC
:10147C00F7E76FF00100F4E72EF8FFFF2DE9F843D2
:10148C00894606691546BFF35B8FD6F86C33BFF3FC
:10149C005B8F022B66D11368EBB11B78DBB1D6F8EE
:1014AC006873002F3FD106F5E8784FF0FF324FF00C
:1014BC00FF33404603F0B2F82968304605F0CFF808
:1014CC00044660B92949304605F0C9F8044638B9D4
:1014DC00404605F0F8F86FF01500BDE8F8830127D9
:1014EC0005F108032367AB696367002384F86C304C
:1014FC00646467B1404605F0E6F8A36E2A6821469D
:10150C003046FFF73DFEC9F800400020E5E72968AA
:10151C001F2204F1480006F046FD84F8677040462F
:10152C0005F0D1F8EFE71149304605F098F804467C
:10153C000028D0D005F108030367AB694367002787
:10154C0080F86C70406429681F22483006F02BFD2F
:10155C0084F8677022460121304600F067F80028B5
:10156C00D1D0B8E76FF00F00B7E700BF199710089C
:10157C0010B50C460069BFF35B8FD0F86C33BFF32A
:10158C005B8F022B0FD189B10A4900F52E7006F042
:10159C00FEFA204606F032F878220021204606F0AA
:1015AC00E8FC002010BD6FF00F00FBE76FF00100AE
:1015BC00F8E700BFBC0C00302DE9F04FD0F8BCA010
:1015CC0085B005460E469046AAF5BA74002721460A
:1015DC003046FEF747FEE0B9134B0293DAF81030B1
:1015EC00A4F1480BCDE9008332464FF0FF33294676
:1015FC005846AAF5DE7902F083FC88B9782303FB00
:10160C000793012283F86C20DAF80C300BB15846A2
:10161C0098477B1C022B04F178044FF00107D6D1BC
:10162C0005B0BDE8F08F00BF1B6810081FB514464D
:10163C0090B18AB1012912D10A4B0293D0F8CC3166
:10164C0001934FF0FF3300F1F00100934832204634
:10165C0002F056FC04B010BD6FF01500FAE7002044
:10166C00F8E700BF1B6810082DE9F04387B00E4661
:10167C001446DDE90E81DDE910251F4630B329B390
:10168C00DFF850C000F1F009002D08BF65469EB987
:10169C00CDE9034400F5DE742046059606F09FF96B
:1016AC0003ABCDE900432A463B464146484602F08F
:1016BC003FFD07B0BDE8F08300220E9241462A465A
:1016CC00484607B0BDE8F04306F090B96FF015003E
:1016DC00EFE700BFC5151008F0B52C4A04460E46BE
:1016EC0092E8030087B004AB83E80300002C49D0D8
:1016FC00184602F0FFFA0546B0B9E16CA163CDE9DA
:10170C0001004FF0FF33009304F15407236D04F1F3
:10171C003802384605F031FDA06C05F0A7F8C4F886
:10172C00BC0020B96FF00B05284607B0F0BDA06CCB
:10173C0005F09CF8C4F8C0000028F3D0236CC4F862
:10174C0090300423C4F89430C4F8AC300223D4F89D
:10175C00BC10E3620E4BB4F84820C4F88C10236222
:10176C00616CC4F8A07004F18C03A4F89820C4F840
:10177C00B870C4F8A810A4F8B020C4F8A400A661EE
:10178C002363D1E76FF01505CEE700BF4C88100836
:10179C00FC8910082DE9F047DFF854800446074611
:1017AC004FF0010994FAA4F5B5FA85F509FA05F399
:1017BC002E0108EB05156FEA030A24EA03042B7BC0
:1017CC0063B158F806301B696BB946440422736840
:1017DC002846196807EA0A0705F0BAF8002CE1D187
:1017EC003846BDE8F087284698470028F6D1ECE744
:1017FC003C88100810B50F490F4888B0002206F03D
:10180C005BFB00220023CDE9062300240E23CDE947
:10181C000334CDE90144094B094900944FF440725B
:10182C00084803F017FA0849064806F0D7F920468D
:10183C0008B010BD5918100880090030791B100829
:10184C0080160030F80400307A8F1008014802F03E
:10185C00A7BF00BF6C0100302DE9F047804620483F
:10186C000F4605F04DF80646002832D000252846D4
:10187C00BDE8F087237B83B12368DB680BB120467E
:10188C009847636883F8069023681B69CBB9636833
:10189C0004221968204605F05BF8013610345445D3
:1018AC00E8D3B8F1000FE2D0002DDFD02846FFF7C7
:1018BC0071FF0546002FF7D00021642006F04FFA87
:1018CC00F2E7204698470028E1D009FA06F31D43B9
:1018DC00E3E7044CDFF810A005464FF00109DEE702
:1018EC00EC0C00303C8810084C881008014B53F865
:1018FC00200070473C8A100808B5034608462BB1F7
:10190C00044A136000F03EFC002008BD6FF0150087
:10191C00FBE700BF4C00003010B5044C237813B922
:10192C00034802F03DFF0123237010BD2912003043
:10193C006C01003010B504460B4804F0E1FF5CB1BB
:10194C00BFF35B8F094B53E8001F013943E80012CA
:10195C00002AF8D1BFF35B8F054803F01BFF054845
:10196C00BDE8104002F01CBFE40C0030E80C003065
:10197C00800900306C010030064BBFF35B8F0022F6
:10198C0053E8000F43E800210029F9D1BFF35B8F26
:10199C00704700BFE40C003070B5FFF7EDFF084C4A
:1019AC00084E0546B44200D370BD63685B792BB119
:1019BC0023685B6813B12946204698471034F1E739
:1019CC003C8810084C88100810B5044C044920467B
:1019DC0004F04EFC034B1C6010BD00BFFC0000303B
:1019EC00288A1008DC0C00300D4A0E48002310B574
:1019FC0013700D4A13600D4A4FF47A711360FFF7A0
:101A0C007BFFFFF7E1FF0A4B0A4918468B4200D3D4
:101A1C0010BD1A1A5C681211013222711033F5E7ED
:101A2C002A12003027691008E40C0030E80C003052
:101A3C003C8810084C8810080146002201480023FD
:101A4C0004F037BCFC000030014804F0CEBC00BFF1
:101A5C00FC000030024B0146186804F021BD00BFA9
:101A6C00DC0C0030014804F056BD00BFFC00003017
:101A7C0070B5274B1B78002B47D0FFF7E5FF0446CA
:101A8C0000283FD1234B244D1B68002B12DD06F0A0
:101A9C0011FA0A220023FEF7CBFBD5E90032C01A5B
:101AAC0040F2E93361EB0201984271F1000101D37C
:101ABC00FFF772FFD5E9003213F57A7342F1000299
:101ACC00C5E900320CB3BDE87040FFF7CBBF6B68C3
:101ADC005B7923B12B6821461B6828469847103543
:101AEC00B542F4D32046FFF7B5FFBFF35B8F0B4B2A
:101AFC0053E8001F013943E80012002AF8D1BFF364
:101B0C005B8FBFE7064D074EEAE7002070BD00BFB4
:101B1C0029120030E40C003078090030E80C003059
:101B2C003C8810084C88100870B50D4D297861B9A7
:101B3C000120FFF791FE0B4C0B4EB44206D3FFF77E
:101B4C0097FF0028FBD101232B7070BD63685B7974
:101B5C001BB1236820469B6898471034EDE700BF03
:101B6C002A1200303C8810084C88100800212DE9FE
:101B7C00F8430846FFF770FE044648B34FF4FA7872
:101B8C004FF0000900F05CFF1A4B1B4A1B58136006
:101B9C0033B11A4B1B68092B02DD194802F000FE09
:101BAC00184F002544B12046FFF7F4FD044618B940
:101BBC004FF0FF384FF0FF39FFF75AFF064628B9B0
:101BCC00B5B90F4842464B4602F01EFE3546E9E7D2
:101BDC004FF0FF384FF0FF39D4E72B689B691BB1EE
:101BEC0000221146284698471035BD42F5D3E8E748
:101BFC00054DFAE708000000E00C0030E80C00305E
:101C0C006C0100304C8810083C88100813B518483B
:101C1C0004F076FE174B1B7873B1EFF3118410238D
:101C2C0083F31288BFF36F8FFFF722FF84F31188C1
:101C3C00BFF36F8F02B010BD0F4B1B68002BF9D098
:101C4C0050B900220023CDE900230C4842F2107257
:101C5C00002303F067FDEDE70928EBD1074803F0FB
:101C6C0099FD074802B0BDE8104002F099BD00BFD5
:101C7C00E80C00302A120030E00C003080090030F3
:101C8C006C01003010B5064B1B6804469847214682
:101C9C00A060044804F08AFBBDE81040FFF7B6BF13
:101CAC004C000030FC000030044A054B9B1AB1EB91
:101CBC00D30F34BF52F8310000207047CC87100886
:101CCC003C8810082DE9F04F8FB004AFC1F34A26C1
:101CDC00B8600D4690467B600C0D002E61D04FF025
:101CEC0000090A234FF0040B07F1140AFE60C7E940
:101CFC000799C7F824900093CDF808B0CDF804A04C
:101D0C0007F11C03F9684A464046FEF7EBFEB0F5B6
:101D1C00006F03461CD36C468AB0D8F8041004AB91
:101D2C002448C3E9050140F2FF71D9611A464FF40A
:101D3C0000711984204B42F8103F20484B464FF459
:101D4C001251FFF7BFFFA5462C37BD46BDE8F08FFB
:101D5C00C0F30A0604F11700184420F007008008AD
:101D6C003B60FFF769FE66F35325044680B13B6880
:101D7C00134A00F11001C7E90839F961CDE901AB4B
:101D8C000A230093F96807F11C034046FEF7AAFEEC
:101D9C0066F353257B68B9682A46204604F0F8FDA3
:101DAC00D2E704F1170020F007008008FFF744FE8B
:101DBC000446EDE78F8F100804000001E48710083B
:101DCC006F6910082DE9F04F87B0DDE9127ADDE973
:101DDC00106B0546884614469946BFB11021CDF8C4
:101DEC0000A03B465A460020CDF814A0FEF7C6FCD6
:101DFC00B0F5006F01460BD3194A1A4840F2FF7335
:101E0C00022107B0BDE8F04F04F01BBE394638463E
:101E1C0004F0070305F00704E40044EA831444EAE1
:101E2C00402444EA065406F11700084420F0070049
:101E3C0080080391FFF700FE054640B13FB10399BE
:101E4C00CDF800A03B465A461030FEF797FC4B46A7
:101E5C0022464146284607B0BDE8F04F04F098BD35
:101E6C00CE8F1008E4871008406820B1034BC01ACD
:101E7C0040F3CF0070474FF0FF307047CC8710080D
:101E8C000EB403B503AB014653F8042B044801937D
:101E9C0000F05CFF02B05DF804EB03B0704700BFCC
:101EAC00996A1008CA0605D48B064CBF024903492F
:101EBC00FFF7E6BF704700BF189710081797100878
:101ECC002DE9F04F89B09846159B0693DDE916A3D2
:101EDC009DF85090189F059204460D460493B9F155
:101EEC00000F00F0B08007F48073079304F02EFD10
:101EFC0007F0020B0246002874D078492046FFF701
:101F0C00BFFF0646BBF1000F08D017F0440F6BD192
:101F1C0073492A462046FFF7B3FF064407F0010336
:101F2C0053B1704B704953F82920704B2046002A4E
:101F3C0008BF1A46FFF7A4FF07F48073002B07F0C5
:101F4C00080318BF4FF00008002B79D0684B694983
:101F5C0053F829202046FFF793FF0546059B2BB12C
:101F6C0065491A462046FFF78BFF0544B8F1000F70
:101F7C0005D0624942462046FFF782FF054460487F
:101F8C003544069B1BB15F49224604F012F8049BB2
:101F9C00002B00F08E80DDF810803946B8F1100F60
:101FAC00204628BF4FF01008FFF77CFF0026B542F3
:101FBC0050DC002633461AF8032053492046FFF71D
:101FCC005FFF0136102E4BD0710703D14F492046CD
:101FDC00FFF756FF46453346EDD34D492046FFF7F4
:101FEC004FFFEEE706468DE74A4B1868002894D061
:101FFC00494B4FF47A7B1B68B5FBF3F54FF46163E7
:10200C00B5FBF0F100FB11550BFB05F54FF03C0C4B
:10201C00B1FBF3F203FB1211B5FBF0FEB1FBFCF3C9
:10202C0000FB1E550CFB13110BFB05F50091B5FBCA
:10203C00F0F53A49CDE901E52046FFF721FF6CE7C1
:10204C0007F008058AE7B8F1010F0CBF2C4834489B
:10205C004D4696E72D492046FFF712FF0136A6E7BD
:10206C00304920460026FFF70BFF33461AF80320B1
:10207C002D49A2F120035F2B28BF2E222046FFF70B
:10208C00FFFE0136102E0DD0720703D11F492046DA
:10209C00FFF7F6FEB0453346E8D81C492046FFF75B
:1020AC00EFFEEEE7049BB3EB0803C24404937FF40A
:1020BC0072AFB9F1000F0AD0FB0704D50B4A0A49DD
:1020CC002046FFF7DDFE39462046FFF7EBFE2046A3
:1020DC0009B0BDE8F04F04F0CCBC00BF0B90100869
:1020EC000F9010084C8A10083490100806901008B5
:1020FC00608A1008379010083D9010084190100825
:10210C00996A1008592D100846901008E39610088B
:10211C00E1961008F40C0030F00C00301890100808
:10212C00CF6A10084C9010084E90100873B542F20C
:10213C000F738B4228BF0B4605680F4A04460521D6
:10214C00684603F095FB63680C495B6806460B22F6
:10215C00284604F080FC63683246694628465B6872
:10216C0004F079FC636806495B681B22284604F07E
:10217C0072FC02B070BD00BF56911008799810081F
:10218C005D981008074A00210123904206D8064AA0
:10219C0001B901231360054B1860704740085B00C0
:1021AC000121F2E740420F00F00C0030F40C00303B
:1021BC00F8B5074F0D4604464618B44201D12846DF
:1021CC00F8BD14F8011BBB6801485B689847F4E73D
:1021DC0008831008014B036002207047A88A10087E
:1021EC0008B50348034A0021121A04F0E7FC08BDA5
:1021FC0080010030301200300748084A084908B501
:10220C00121A04F0DDFC0748074A0849BDE80840EB
:10221C00121A04F0D5BC00BF000000307C01003065
:10222C0094981008000000300000003094981008BA
:10223C002DE9F047064600AF0C46002936D0E9469A
:10224C008AB0D1E90012A3686D462148E8464FF0E8
:10225C00050ACDE90501CDE9072348F810AF1D4863
:10226C00424600234FF42151FFF72CFDCD46D4E913
:10227C0003126369AD461848C5F810A0C5E90501FD
:10228C00C5E907231348002342464FF42151FFF7B9
:10229C0019FDCD46E369114A0E48012104F0D1FB2A
:1022AC00A3690F4A0B48012104F0CBFB012E07D187
:1022BC00EFF305830B4A0748103B314604F0C1FB92
:1022CC002146304602F01CF8BD46BDE8F08700BF41
:1022DC00AB9010080C881008DA90100809911008BF
:1022EC00189110084691100830BFFFF7FDBF00BFD2
:1022FC002DE9F0410B4EDFF8308006EB0807CC1BC4
:10230C00054632460949204605F025FEA0194246ED
:10231C000021083C05F02DFE2C6707F10800BDE8F4
:10232C00F08100BF00000000040000004C88100881
:10233C0010B5204C2049214804F04FFCA36A9901A8
:10234C0036D51E481E4904F048FC1E20A36ADA014B
:10235C0004D51A481B4904F040FC1F20154CA36AF5
:10236C001B0304D51548184904F037FC2120A36A37
:10237C00590304D51148154904F02FFC22200D4CAB
:10238C00A36A9A0304D50D48114904F026FC2320B6
:10239C00A36ADB0304D509480E4904F01EFC242073
:1023AC00044A936A6FEA03436FEA1343936210BDC6
:1023BC001D20CBE700ED00E0599110080C881008A7
:1023CC0071911008849110089E911008BC9110080E
:1023DC00E1911008FB91100870B506460D46284C8B
:1023EC002849294804F0F9FBA36AD9043CD52648AE
:1023FC00264904F0F2FB1720A36A1A0504D52248DB
:10240C00234904F0EAFB18201D4CA36A9B0512D546
:10241C001D48204904F0E1FBA36BA26A100409D506
:10242C001D4A1948012104F00CFB1EB1A36A23F4C8
:10243C000043A3621920124CA36A590504D5124813
:10244C00164904F0CAFB1A20A36ADA050ED50E4809
:10245C00134904F0C2FB1B20094A936A43F47F43DF
:10246C00936200232B7070BD1620C5E7A36A9B04F2
:10247C00F2D505480B4904F0B0FB1C20ECE700BF7B
:10248C0000ED00E0269210080C8810083C92100811
:10249C004D92100860921008799210088E921008D4
:1024AC00A9921008C19210082DE9F843804689467C
:1024BC001746354D3549364804F08FFBAB6ADE06BE
:1024CC0027D53449324804F088FB1124AB6A1D0728
:1024DC0004D531492E4804F080FB12242A4DAB6AF6
:1024EC00980718D52D492A4804F077FB6E6BAB6A18
:1024FC00190646D52A4A26483346012104F0A1FA8A
:10250C00B9F1000F03D0AB6A23F08003AB62132444
:10251C0003E01024DAE76FF015061B4DAB6ADA07FF
:10252C0004D520491A4804F058FB1424AB6A9B06C6
:10253C0004D51D49164804F050FB1524124B9A6A19
:10254C00D50602D49A6A90070AD55B68190507D597
:10255C004146304600F0C6F910B180F309880224D8
:10256C00094B9A6A920642BF5A6A22F400525A6286
:10257C009A6A42F0FF029A6200233B702046BDE843
:10258C00F8836FF01506C2E700ED00E0F09210083A
:10259C000C881008069310084D92100839931008F7
:1025AC005193100867931008C19210082DE9F0415F
:1025BC00684B8AB0D3F8048000AF0446C8F3080611
:1025CC00002585F31188BFF36F8F02F07F43B3F1C1
:1025DC007F4F07D102F00C03082B12D15E495F48E4
:1025EC0004F0FBFA00252C460023FB71F31E092B8B
:1025FC0000F28F80DFE803F00A8588818D8D8D8D48
:10260C008D8B10074CBF0C460125EDE75449534800
:10261C00504E04F0E2FA0023FB71F36A9A0705D5D9
:10262C0050494E4804F0D9FA00232DE0F36A002BF0
:10263C0001DA4D49F5E7F36A5B00F5D54B4947489C
:10264C0004F0CBFA7369A26943F480737361BFF32E
:10265C004F8FBFF36F8F32F8023C726922F4807295
:10266C007261BFF34F8FBFF36F8F03F47F42B2F5EC
:10267C005F4F2BD1DBB2022B28D123683C4A374861
:10268C00012104F0DEF92368FA79DAB907F10806BA
:10269C0004F1200C20686168324603C2083464459A
:1026AC001646F7D17A6A002D50D0C2F3080121B931
:1026BC006FEA52226FEA42227A6207F10801184649
:1026CC00FFF7B6FD2837BD46BDE8F081214B9A6A6D
:1026DC00D2B22AB1FA1D01212046FFF7E5FE0EE029
:1026EC009A6A12F47F4F04D0F91D0120FFF774FE93
:1026FC0005E09B6AB3F5803F96D3FFF719FE0346BE
:10270C00C2E7FA1D0021E7E7F91D0020EEE71949A1
:10271C0087E7194A194B18F4F87FE8468AB008BFC6
:10272C0013466A461649CDE905134FF40073ADF80C
:10273C002030103E134B079642F8103F07480023F9
:10274C004FF41151FFF7BEFAC5466DE76FF308025F
:10275C00B2E700BF00ED00E0B49310080C8810083D
:10276C00DF931008F693100817941008259410089E
:10277C004494100860941008869310089B931008DA
:10278C008494100804000001044B5A6942F01002B2
:10279C005A615A6922F008025A61704700ED00E054
:1027AC00EFF30880EFF3098101B57246FFF7FEFEE7
:1027BC0001BD00BF0A4880F30888102080F31188FF
:1027CC0008484FF40461401880F30988EFF3148033
:1027DC000221084380F31488BFF36F8F00F04AF88E
:1027EC00802B0030C01900301EF0040F0CBFEFF32B
:1027FC000880EFF30980816911F8021C0229FFD0CF
:10280C0001B5724604F0DEF901BD00BF00B200282C
:10281C0007DB044A4109012300F01F00834042F802
:10282C002130704700E100E000B20028A8BF00F1A1
:10283C00604001F10101B8BF064B4FEA0111ACBF7A
:10284C0000F5614000F00F00C9B2B4BF195480F814
:10285C000013704714ED00E0044B054A23F07F038E
:10286C009360BFF34F8FBFF36F8F7047000010085A
:10287C0000ED00E008B5FFF7EFFF0B4AD2F8883007
:10288C0023F47003C2F88830EFF3148323F00403AD
:10289C0083F31488BFF36F8FFFF7A2FCFFF7ACFC38
:1028AC0000F0B0F801F052FE00ED00E042F8203CE0
:1028BC00009B42F81C3C0A49019B42F8183C029BC5
:1028CC0042F8143C21F001014FF0807342F8043CB3
:1028DC0042F8081C0023203A02654367704700BF8A
:1028EC00C50E1008094A0346906870B113F1160F13
:1028FC00006E05D0A0F14002934205D3834203D26F
:10290C00814228BF0020704700207047F40D003032
:10291C0008B515460B4A0C4B9060026F1A600E46B8
:10292C0000F0A0F82C4686F309880020034B98474A
:10293C002046002100220023014C2047FD6B10088B
:10294C00C50E1008F40D00301C0D0030014B102288
:10295C001A61704700ED00E0054B5A699B689A427A
:10296C001FBF044A536843F080535360704700BF45
:10297C00F40D003000ED00E0084B9B6883420BD156
:10298C00EFF3058343B1064B5A6842F080525A600C
:10299C005A6A22F400425A6202F0DEBBF40D003097
:1029AC0000ED00E014498A684FF030001044EFF35A
:1029BC00098C80E8F01F102080F31288BFF36F8F12
:1029CC000E4F4FF000664A698A603E60106F0C4CE7
:1029DC002060506F0023536780F3118804B51046B4
:1029EC0000F040F8BDE8044002F1300090E8F01F20
:1029FC008CF3098870470000F40D003004ED00E002
:102A0C001C0D0030044800231021C21801337F2B09
:102A1C0082F80013F9D1704700E100E008B5EFF33C
:102A2C000583064A103B02EBC30152F83300496898
:102A3C008847BDE80840FFF78FBF00BF5C831008D4
:102A4C0001480068704700001C0D0030024B034A1F
:102A5C000348012100F08AB8000002300000003069
:102A6C00C88A1008036E054A403B1360044B402192
:102A7C00C2E901131046012100F082B8200D00308C
:102A8C0000000B1508B503461048D0F89020C2F38F
:102A9C000722013A934207D90D480E4A012103F04F
:102AAC00D0FF6FF0150008BDC0F898300A6822F00E
:102ABC001F021A4342F01002C0F89C208A6842F0B0
:102ACC000102C0F8A0201846EDE700BF00ED00E0C1
:102ADC00048810089B941008F0B50E4685B01F466C
:102AEC0004460025B5420DDA606810B397B1431E59
:102AFC0018420AD0104A11482B46012103F0A1FFBD
:102B0C006FF01502104605B0F0BD1F28F2D92168F0
:102B1C000B42EFD12368019304F07EF8A36801A95E
:102B2C000343D0B20393FFF7ADFF10F1160FE7D0BC
:102B3C00421C01350C34D5E7C194100804881008E8
:102B4C00044B0522C3F89420BFF34F8FBFF36F8F54
:102B5C00704700BF00ED00E0BFF35F8F024B002217
:102B6C00C3F89420704700BF00ED00E010B5034C93
:102B7C0001232278FFF7B0FF207010BD2C1200301B
:102B8C0008B50B4A00231278FFF7A6FF10F1160FB9
:102B9C0007D0084A0021D2F89030C3F3072398429B
:102BAC0000DB08BDC2F89800C2F8A0100130F2E7B3
:102BBC002C12003000ED00E02DE9F0435D485E4939
:102BCC00D0F890300C68C3F307239C4285B000F218
:102BDC00AE80FFF7C1FF49680022944201F10C015D
:102BEC001AD1564F564D3C706846FFF7F3FA554CC8
:102BFC00554E81464FF00008C14520D13B784D49D8
:102C0C000020D1F89020C2F307229342C0F28980B1
:102C1C00FFF796FF002050E0C0F8982051F80C3CCC
:102C2C0023F01F03134343F01003C0F89C3051F8FA
:102C3C00043C43F00103C0F8A0300132CDE700980A
:102C4C0000EB08114FEA081CCB682340B3F5000FCA
:102C5C0049D00BD8B3F5001F32D0B3F5800F37D065
:102C6C00B3F5801F14D008F10108C5E7B3F1007F5C
:102C7C0042D0B3F1805F48D0B3F1807FF3D150F8EC
:102C8C000C3088684A6803F0C7FF40F0887009E090
:102C9C0050F80C3088684A6803F0BEFF40F088504A
:102CAC0040F43020039001A93878CDE90123FFF7D7
:102CBC00E9FE002831DA6FF0150005B0BDE8F083AD
:102CCC0050F80C3088684A6803F0A6FF3043E9E7F7
:102CDC0050F80C3088684A6803F09EFF40F0C060E2
:102CEC0040F40030DEE750F80C3088684A6803F096
:102CFC0093FF40F08270D5E750F80C3088684A6832
:102D0C0003F08AFF40F48020CCE750F80C30886840
:102D1C004A6803F081FF2843C4E73B7801333B70DA
:102D2C00A1E7C1F89830C1F8A000013369E74FF072
:102D3C00FF30C2E700ED00E0A08910082C12003033
:102D4C00000002110000F0FF00000811F0B587B080
:102D5C0007460E4614460021102268461D4605F013
:102D6C0008F902238DF802302A46054B01932146BF
:102D7C006846CDE9047602F0A5FD07B0F0BD00BFB2
:102D8C00456C100808B5024B1B689847002008BD1D
:102D9C002C0D0030034B044A1860937843F0020367
:102DAC00937070472C0D00305800003008B5064960
:102DBC00064821F00701C1F1405202F5003203F040
:102DCC00B7F8002008BD00BF4B400030300D00307C
:102DDC0010B50A4A0A494FF48013D2F8A40088426D
:102DEC000BD0581CF9D0013BF7D183F31188BFF3FA
:102DFC006F8F0424204602DFEFE710BD00640258F9
:102E0C000001008007B5084A92E80300CDE90001F3
:102E1C0006488268126822B16946904703B05DF893
:102E2C0004FB6FF05700F9E75488100880811008F4
:102E3C005F2838B5054607D9114A034601211148C8
:102E4C0003F0FFFD002038BD00F01F0301249C405F
:102E5C00FFF7BEFF1F2D4FF0B0430AD8D3F8C83090
:102E6C009C43094B4FF480720CBF012000205A6226
:102E7C00E9E73F2D94BFD3F8D830D3F8E830EFE72B
:102E8C00E7941008D48710080064025838B5012163
:102E9C0000F01F055F28044601FA05F507D90E4A14
:102EAC0003460E4803F0CDFD6FF0150038BDFFF75B
:102EBC008FFF1F2C4FF0B04307D8C3F8C850084BF6
:102ECC004FF480725A620020F0E73F2C94BFC3F895
:102EDC00D850C3F8E850F2E7E7941008D4871008EC
:102EEC0000640258044B03EB4000002301338B4277
:102EFC0020F8022BFADB7047B80000302DE9F041C6
:102F0C00104F054600264FF001086B78F4B2A3422F
:102F1C0001D8BDE8F0812B781C442046FFF788FFD0
:102F2C0068B12046FFF7B2FF57F834303BB107EBDE
:102F3C00C40204F01F04516808FA04F098470136E3
:102F4C00E3E700BF3C0D003010B50A4A0A494FF4C4
:102F5C008013D2F8A40088420BD0581CF9D0013B46
:102F6C00F7D183F31188BFF36F8F0424204602DF5F
:102F7C00EFE710BD0064025800010080034680B1E9
:102F8C00B0FA80F2C2F11F02D2B2074931F9120035
:102F9C004FF0B042D2F8C0100B43C2F8C030FFF76C
:102FAC0035BCFF22F1E700BFB800003038B50D4644
:102FBC000446FFF7C9FF032D0DD8DFE805F0021119
:102FCC0016204FF0B0431A6822EA04021A605A68BD
:102FDC0022EA04025A600E4B4FF480725A6238BDDA
:102FEC004FF0B0431A682243F0E74FF0B0435A68F1
:102FFC0022435A601A6822EA04021A60EBE74FF087
:10300C00B0431A6822431A605A6814435C60E2E7C2
:10301C000064025830B5B0B1B0FA80F3C3F11F03AD
:10302C00DBB20B4850F833408C4204D100EBC305A3
:10303C006D68954205D044B940F8331000EBC300DD
:10304C004260002030BDFF23EBE76FF00F00F9E783
:10305C003C0D003060B1B0FA80F3C3F11F03DBB25A
:10306C00044A002142F8331002EBC302516070474E
:10307C00FF23F5E73C0D003038B500F003030433B3
:10308C009B000F259D4045EA90050C46FFF75CFF21
:10309C0005F003039B0003F1B04303F580639968CB
:1030AC002A0C21EA154192FAA2F20AB1B2FA82F282
:1030BC0094400C439C60024B4FF480725A6238BDB2
:1030CC000064025800F00302043292000F23934074
:1030DC0043EA900000F003030233074A52F823201E
:1030EC00030C02EA104293FAA3F008B1B0FA80F094
:1030FC0022FA00F0704700BF0004005810B51A4BBC
:10310C0018680B88C3F30B03F42B07D8D72B08D8FC
:10311C00132B1BD8112B12D8012B1CD06FF0850050
:10312C0013E003F628730124C3F30B0304FA03F32F
:10313C000E4C23420DD140F211142342EED01060FC
:10314C000B68B3F5805F08D2002010BDD42BF6D0ED
:10315C00E4E74008F3E70020F1E7C3F3133301334E
:10316C00B0FBF3F01060EFE77C00003000101111A1
:10317C0010B50A4A0A494FF48013D2F88C008842E1
:10318C000BD0581CF9D0013BF7D183F31188BFF356
:10319C006F8F0424204602DFEFE710BD0064025855
:1031AC000001008010B50B8803F62C73C3F30B03DE
:1031BC00202B0C4610D8FFF7DBFF238808496068EA
:1031CC00C3F30B035A5822EA00025A50054B4FF432
:1031DC008072DA60002010BD6FF08500FBE700BF45
:1031EC00604402580064025813B50B8803F62C7324
:1031FC00C3F30B03202B0C4616D8FFF7B9FF23881B
:10320C000B4A6068C3F30B03995801439950238808
:10321C00C3F30B0300209B580193019B054B4FF408
:10322C008072DA6002B010BD6FF08500FAE700BF63
:10323C006044025800640258044A136923F40043A2
:10324C001361034B034A1A60002070470044025874
:10325C007C000030001C4E0E70B508884C68C0F322
:10326C000B0003F04BFD0546F0B9FF2C1AD0FFF70D
:10327C007FFFA2B2C4F3415002F1B04202F5113209
:10328C000130012383401168C4F30446013BB34071
:10329C00240E21EA0303B44023431360044B4FF480
:1032AC008072DA60284670BD6FF08505FAE700BFC2
:1032BC000064025808B5074804F0F1FB38B1064821
:1032CC00FFF768FD0448FDF7F1FD002008BD6FF025
:1032DC001200FBE708831008E93210080A2838B5F9
:1032EC00074D044604D1AB680D215B68284698470E
:1032FC00AB6803485B68E1B29847204638BD00BF15
:10330C00088310082DE9F843D0F804900746D9F843
:10331C00080090460D461E4603F0E2FCB8F5001F6F
:10332C00044616D12846D9F80840FFF7CBFE844254
:10333C000CD1294603F0D4FC044603F0D6FC2046FD
:10334C00FFF788FE00212046FFF730FE0020BDE885
:10335C00F883B8F5800F20D0B6F1806F19D0B6F194
:10336C00C06F18D0B6F1007F1AD102260F493A4629
:10337C002046FFF74FFEB0B9D9F808102846FFF7E2
:10338C007BFE20463146FFF711FE2046FFF7F6FD87
:10339C00DCE70126EAE70326E8E76FF08500D6E7CD
:1033AC006FF01500D3E76FF00F00D0E7A36E100895
:1033BC0010B50A4A0A494FF48013D2F8A00088428B
:1033CC000BD0581CF9D0013BF7D183F31188BFF314
:1033DC006F8F0424204602DFEFE710BD0064025813
:1033EC000001008038B543685D680C46FFF7E0FFCC
:1033FC006B695C40034B6C614FF480721A62002065
:10340C0038BD00BF0064025870B543685E680D4655
:10341C001446FFF7CDFF73695C402C405C40034BB6
:10342C0074614FF480721A62002070BD00640258FF
:10343C0038B5084CD4F8182112050AD5026955681C
:10344C001DB1926800230B21A8474FF40063C4F808
:10345C00143138BD006402580B2912D10A4B5AB1F1
:10346C004FF40062C3F81421D3F8102142F4006227
:10347C00C3F8102100207047D3F8102122F4006209
:10348C00F6E76FF0150070470064025810B53AB1BA
:10349C00114A1248012103F0CBFA6FF0150010BD50
:1034AC000A29FAD10E4A0F494FF4801308E0013B68
:1034BC0006D183F31188BFF36F8F0424204602DFFB
:1034CC00D2F8A800884202D0581CF9D0EFE74FF48C
:1034DC00807393620020E2E734951008FC87100893
:1034EC0000640258000100802DE9F04182B043686D
:1034FC0000AF1E6880460D46002937D05868196900
:10350C008368DB686BB13A1D9847041E0CDA1B4AC2
:10351C001B48012103F08CFA20460837BD46BDE854
:10352C00F0816FF05704F2E7336823F40043336003
:10353C007B6803EB5503B3FBF5F30F2B19D86C46E3
:10354C008AB0D8F800306A460E490795CDE90513C4
:10355C004FF40073ADF820300B4B42F8103F084885
:10356C0000234FF41151FEF7ADFBA5466FF0150487
:10357C00D2E79BB2F3600024CEE700BF869510081B
:10358C0034881008B495100804000001F8B50C46F6
:10359C00036941681D682379012B19D0A3F1020E30
:1035AC00DEF1000646EB0E06B6026279022A9CBFDB
:1035BC00464F37F81270A27988BF4FF40057022A91
:1035CC0009D0042A2FD0003B18BF01231B0306E0AF
:1035DC004FF4C066E9E7B3FA83F35B091B07E279A2
:1035EC000968012A0CBF4FF4407C4FF0000CA54237
:1035FC001CD10A6822F0805222F4B05232431A4392
:10360C000A604B6823F440533B434B6043681A6891
:10361C00936823F4407343EA0C0393602968BDE874
:10362C00F840FFF761BF4FF48053D8E7D1F800E0C2
:10363C000EF4C06E76451FBFD1F800E02EF4C06EBC
:10364C004EEA06060E6041680E68716801F440513E
:10365C008F421FBF716821F440513943716041683A
:10366C000E68316801F010218B421FBF316821F0C8
:10367C0010210B433360436819688B6803F4407363
:10368C009C451FBF8B6823F4407343EA0C038B608B
:10369C0043681B68D71E99687E427E41C1F3803116
:1036AC008E4207D0032A9A680CBF42F4804222F45F
:1036BC0080429A6021682B68994205D0FFF714FF6D
:1036CC0008B923682B60F8BD0020FCE7808B10083C
:1036DC002DE9F04182B044688046606821698368B6
:1036EC001B6800AF73B19847054668B9606A3A1D0C
:1036FC00002103F000FC051E0EDA28460837BD46F3
:10370C00BDE8F0816FF057055F4A6048012103F076
:10371C008FF9002DF1DBE9E77B6800221979186835
:10372C0003F0FCFB051EE8DBD8F80460D8F8103079
:10373C0034681D68236823F001032360B06804F02B
:10374C00AEF938B9524A5148012103F071F96FF0C2
:10375C001205D2E7D6E902018368DB6803B198470A
:10376C0054E8003F43F00C0344E80032002AF7D140
:10377C0029464046FFF70AFF0546002852D1337E02
:10378C001BB1A36843F00803A360737E1BB163688D
:10379C0043F400436360B37E1BB1636843F480332E
:1037AC006360F37E1BB1636843F400336360337F63
:1037BC00002B55D0374B9C4237D0A3F54C439C4241
:1037CC0033D003F580639C422FD003F580639C4279
:1037DC002BD003F580639C4227D003F544439C42D5
:1037EC0023D0A3F51C439C421FD003F580639C425D
:1037FC001BD0294B9C4218D06C4688B0D8F80030AE
:10380C006A462649CDE905134FF40073ADF81C3018
:10381C00234B42F8103F1D4800234FF4E251FEF7B2
:10382C0051FAA5466FF0150567E7D8F804301A6809
:10383C00936843F4804393602368727F23F078731A
:10384C0043EA425323602368B27F23F4F81343EA1C
:10385C0002432360F37F1BB1A36843F40043A360CE
:10386C0096F820301BB1236843F000532360236883
:10387C0043F001032360E3699A02FCD5E3695B0220
:10388C003FF53BAFFAE700BFCB9510083488100822
:10389C00EB95100800100140000C0058069610081B
:1038AC00030000012DE9F04143681C6803691E68A0
:1038BC000B79012B02460D4617D0981E414241410F
:1038CC00890295F805E0AF79BEF1020F96BF3C482E
:1038DC004FF4005C30F81EC0022F09D0042F01D029
:1038EC00002B63D04FF4805005E04FF4C061E8E743
:1038FC00002B58D00020A3F10308B8F1010F04D815
:10390C006FF085031846BDE8F0810BB1042FF7D09A
:10391C00BCF5805F4CD0BCF5405F4BD0BCF1000FC8
:10392C000CBF012303239E45EAD103F070FB8742B1
:10393C00E6D1EB791BB3012B3ED1224B9C421ED01E
:10394C00A3F54C439C421AD003F580639C4216D0DD
:10395C0003F580639C4212D003F580639C420ED029
:10396C0003F544439C420AD0A3F51C439C4206D069
:10397C0003F580639C4202D0134B9C42C0D1236858
:10398C0023F00103236029461046FFF7FFFD034691
:10399C000028B5D1226842F00102226095E80300AC
:1039AC0086E80300AEE74FF08050B1E71846AFE76A
:1039BC000023B8E70223B6E7032BBED0A0E700BF75
:1039CC00808B100800100140000C00584FF0E023D1
:1039DC000D4A9969126818699B69002908BF11463C
:1039EC00002B08BF134610F4803F084801D19942C0
:1039FC0005D20168114401604FF0E02109690068AB
:103A0C001044C01A704700BFCC0D0030C80D0030F8
:103A1C00094B102283F82320084B45F6C0521A603C
:103A2C00074B002018604FF0E02345F6BF525A6157
:103A3C00072298611A61704700ED00E0CC0D003050
:103A4C00C80D0030684620F007018D4619B5FFF708
:103A5C00BDFF144B1449D3E900420868001942F128
:103A6C000002C3E90002114A00230B60D2E90041B5
:103A7C0045F6C053001BB0FBF3F043431B1941F157
:103A8C000001C2E90031EFF31181102383F3128896
:103A9C00BFF36F8F01F04EFDFEF75EFFBDE81940DE
:103AAC0085467047C0090030C80D0030B809003099
:103ABC002DE9F041364E89B1421C0AD14FF0E0227B
:103ACC00136923F0010313614FF07F433360BDE8AA
:103ADC00F0813568012806DC00240AE0431C3568B7
:103AEC00F8D140F2BA2040F2BB239842A8BF184646
:103AFC00441EEFF31187102383F31288BFF36F8FEB
:103B0C00FFF764FF23494FF0E023D3F818C0D1E945
:103B1C000023801843F10003C1E900031E4B00226F
:103B2C001A601E4B1A68831A2DD445F6C05E45F6F2
:103B3C00BF5814FB0E841C44131AB4FBFEF440F261
:103B4C00DC520EFB0433934238BF1346144A9342A3
:103B5C0028BF13464FF0E02233609469013B536158
:103B6C0000239361A445D1E90032ACEB04000DD2E3
:103B7C000544EB1842F10002C1E9003287F31188C9
:103B8C00BFF36F8FA3E740F2DC53E3E7C318F1E711
:103B9C00CC0D0030C0090030C80D0030B809003021
:103BAC00809DFF0038B5EFF31185102383F3128845
:103BBC00BFF36F8F084B1C68084B1B68E41AFFF7A8
:103BCC0005FF85F31188BFF36F8F45F6C053204472
:103BDC00B0FBF3F038BD00BFC0090030B8090030AD
:103BEC002DE9F0410D4D55F81C4F0E461746AC42D1
:103BFC0003D16FF01200BDE8F08154F8440C31464B
:103C0C00A4F14408FCF72EFB30B9C7F800804046FD
:103C1C00BDE8F04103F04DBB2468E8E7D00D00305F
:103C2C0010B5D0E909124A60416A116000F1240311
:103C3C00C0E909334368044603B19847054A9368C1
:103C4C0033B11279062A03D9226803490720984711
:103C5C00002010BDD00D0030439610082DE9F04126
:103C6C000C4E56F80C4F07460D46B44202D16FF07D
:103C7C0001000AE054F8240C3946A4F12408FCF79E
:103C8C00F1FA20B91DB1C5F80080BDE8F0812468B7
:103C9C00EBE700BFD00D003038B5044600B3006828
:103CAC00F0B10378E3B10021FFF7D8FFD8B104F1EC
:103CBC001C03C4E907330D4B1969A16204F12402FA
:103CCC0003F10C0060621A610A609D6835B11B79C2
:103CDC00062B03D9226806490720A847002038BDC7
:103CEC006FF01500FBE76FF01000F8E7D00D003017
:103CFC004596100838B5124C2168054619B10131AA
:103D0C002160002038BD2422204604F032F92B68B3
:103D1C00A3602B79237104F10C03C4E9033304F180
:103D2C001403C4E90533284604F11C03C4E9073322
:103D3C0000F01AF80028E5D1236801332360E1E78D
:103D4C00D00D003038B5074D2C68013C2C6044B9BF
:103D5C0000F012F8214628462422BDE8384004F031
:103D6C0008B938BDD00D003008B50248FFF794FFF4
:103D7C00002008BD800000300148FFF751BF00BF94
:103D8C00800000300EB433B5431E062B05AC88BF43
:103D9C000020094B54F8045B53F82010074802F03C
:103DAC005AF921462846019402F053F902B0BDE8B5
:103DBC00304003B0704700BF288B100834901008B7
:103DCC002DE9F04385B01646DDF830801F460446D9
:103DDC0058B3056A35B12D6825B1AC4605B0BDE8C0
:103DEC00F0436047E36A9E4222D800254FF0180941
:103DFC00B54203D1002005B0BDE8F083216B09FB6F
:103E0C0005F28B188A580292226A926A019258F82B
:103E1C002520009257F825200433A9B2204603F040
:103E2C008DFA0028E7D10135E2E76FF01500E2E7E3
:103E3C000048E0E740F4FFFF10B5044690B1028D56
:103E4C0043899A4209D0084A936833B11279032AFC
:103E5C0003D942680549042098472046BDE8104024
:103E6C0004F04EB810BD00BFD00D0030F89610080D
:103E7C0030B544898C4212D9436A5D88013C2C4090
:103E8C0003EBC40359609A60BFF35B8F426A53889B
:103E9C0001335380438D01334385002030BD0148ED
:103EAC00FCE700BF41F4FFFF70B4039E144658B109
:103EBC00006A48B143B1013406D0002E04DBC46F54
:103ECC0014B1A44670BC6047014870BC704700BF79
:103EDC002DF8FFFF70B4039E144660B1006A50B118
:103EEC004BB1013407D0002E05DBD0F88C4014B157
:103EFC00A44670BC6047014870BC70472DF8FFFFAA
:103F0C002DE9FF47DDF834800E4691469A4605466A
:103F1C00002876D0002974D0B8F1000F71D001F1CF
:103F2C006407384603F0AAFABAF1FF3F49D1346E60
:103F3C0006F1500204F18000844204F01F0C07D2F9
:103F4C00C4F3411152F8211021FA0CF1C90736D4EF
:103F5C0004F07F046009012152F8203004F5806AD6
:103F6C0001FA0CF104F201440B4304F07F0442F813
:103F7C00203034666B6C03930E9BCDE901830C9B54
:103F8C0000934A4653462946304603F016FB384602
:103F9C0000F006FC2C7874B196F89C405CB1AB6ACE
:103FAC00013330D10021284603F0A7FA044610B1A2
:103FBC00284603F078FA204604B0BDE8F0870134B7
:103FCC00BAE7BAF5806FD5D3AAF580637F2B06F1DB
:103FDC0050010FD8580903F01F0351F8204024FA60
:103FEC0003F2D2070BD4012202FA03F3234341F864
:103FFC002030BFE7054C384600F0D2FBDBE7044C21
:10400C00F9E7024CD7E70024D5E700BF2DF8FFFFF6
:10401C0029F8FFFF08B583681A0C0AD1094A93687E
:10402C002BB11279022A02D90749032098470020A4
:10403C0008BDA3F580338360180CB0FA80F04009FA
:10404C00F6E700BFD00D00301A97100838B50446BB
:10405C00C0B100F16405284603F0EAFAD4F8AC309C
:10406C009B69012B05D0084C284603F0DFFA20464B
:10407C0038BDD4F8B40003F0E9F9A0F11004002C19
:10408C00F2DCF0E7014CF2E72EF8FFFF2DF8FFFF12
:10409C0038B50446C0B100F16405284603F0C8FAEF
:1040AC00D4F8AC309B69012B05D0084C284603F0A2
:1040BC00BDFA204638BDD4F8B00003F0C7F9A0F122
:1040CC001004002CF2DCF0E7014CF2E72EF8FFFFB5
:1040DC002DF8FFFF2DE9F04385B00F46904603A95C
:1040EC000D9A0546994603F005FC0446E0B1D5F857
:1040FC00B8000C9E039B0168D0F808C09E42A8BF74
:10410C001E46611A33464A46614528BF4FF0FF31BF
:10411C0003F096F80096234642463946284603F0AB
:10412C0024FB05B0BDE8F0830048FAE72EF8FFFF4A
:10413C00F0B50D4689B016461F460446002800F01F
:10414C00AF80002900F0AC80002B00F0A98000218A
:10415C00C0F8C810A02203F00CFF0122114604F194
:10416C00640003F0C9FC4F4BC4F8AC506667AC62FA
:10417C00E3674D4BC4F880304C4BC4F884304C4B47
:10418C00C4F888304B4BC4F88C304B4BC4F890308F
:10419C004A4BC4F894304A4BC4F89830AB69012BA5
:1041AC0006D02B6A33BB6FF00506304609B0F0BD64
:1041BC00D4F8AC00D8B1036A002BF4D09B68002B68
:1041CC00F1D0984742060FD5D4F8AC0078B1036A09
:1041DC00002BE8D0DB68002BE5D0002198470021AC
:1041EC000A2003F0BCFDE3E74307DAD4F7E76FF0EE
:1041FC001506DAE71B69002BD5D028469847AB6922
:10420C00012B04BF2861002300F0010008BF6B6183
:10421C0084F89C00AB69012B07D12A4B04932A4BE1
:10422C0005932A4B06932A4B079304F1C003C4E968
:10423C003033002106ABC4F8B87002220093019110
:10424C0004AB2846FFF7BCFD06460028ADD1AB6990
:10425C00012B07D12B6B9B69C4F8B0302B6B1B68FF
:10426C00C4F8B430D4F8B40003F0B0F82B6B1B686E
:10427C00DF622B6B9B69DF6294F89C30C4E90044CD
:10428C00002B92D000230293124B01933523124A38
:10429C000394009304F10801204603F08EF984E79F
:1042AC000E4E82E7E1401008917610081F78100836
:1042BC000179100877771008497610089D4010088E
:1042CC00594010083B971008419710083776100892
:1042DC0053781008B5761008479710082DF8FFFF93
:1042EC0010B50446FDF720FC0348044A012102F0F6
:1042FC009FFB204603F0DEFB0C8810084A97100841
:10430C002DE9F843044600AF0D46EFF31188102356
:10431C0083F31288BFF36F8F04282A4A98BF2A4B65
:10432C009668117C94BF53F82030284BE9468AB02C
:10433C006A462748CDE9073140F20133ADF8243005
:10434C00244BCDE9050442F8103F234800234FF4D9
:10435C003151FDF7B7FCCD4645B1EB69C3F308030A
:10436C0023B11E4A1C48012102F062FB2EB13046DB
:10437C0003F037FC08B1037803B91948E9468AB051
:10438C006A46184B0790CDE9053640F20133ADF87B
:10439C002030154B42F8103F00230F484FF41151B9
:1043AC00FDF790FC2946CD462046FFF799FF88F390
:1043BC001188BFF36F8F3046FEF7DEFABD46BDE8BD
:1043CC00F88300BFF40D0030488B10085997100883
:1043DC006F971008050000010C88100897971008BB
:1043EC0067971008B89710080400000138B50A4BFD
:1043FC0053F82040013053F82050A54200D838BD66
:10440C00606830B1037EDB0701D403F030FB083465
:10441C00F3E723689847FAE75C8B100870B52A4BD2
:10442C002A4C2B4D86B0012203201A70FFF7DEFFB9
:10443C0001F0F0F90420FFF7D9FF2646AE4204F153
:10444C0030040FD300F0BEFD204CAC4226D300F05C
:10445C00CDFDFCF7A5F81F4A938923F00103938146
:10446C0006B070BD54F80C3C059354F8103C049302
:10447C0054F8143C039354F8183C029354F81C3C25
:10448C00019354F8203C009354E90A2354E90C019D
:10449C0000F094FB54F8303C5E65CEE7D4E90A2377
:1044AC00B3F1FF3F08BFB2F1FF3F05D052EA030161
:1044BC00206803D103F06CFC3034C6E70649183091
:1044CC0000F0A8FFF8E700BF2D1200305487100849
:1044DC0054871008480A0030CB7C100870B50023B4
:1044EC0086B00122CDE90423134E144D01930F2203
:1044FC00CDE902321249142303FB005506EBC0161A
:10450C0004464FF4C07000FB04110E4B00954FF4A1
:10451C00A072304600F052FB337C0B4AEE6023F065
:10452C00040333744FF4046304FB033313442C74FB
:10453C006B6006B070BD00BFC8090030F40D0030D0
:10454C0000220030D17A1008C01900307FB500204D
:10455C00FFF74CFF294B83F30888294C636943F41C
:10456C00007363610025F02384F82230E57725760B
:10457C006576A57684F82050636A43F4E023636281
:10458C00FEF702F9FEF7E2F94FF0FF33A362E362A4
:10459C00FEF712FBFEF75AFAFDF726FA19481A4CE9
:1045AC0000F084FBFCF742FD0120FFF71FFF022007
:1045BC00FFF71CFF00F044FD144B15495C61154BD3
:1045CC00059301234FF40062CDE90353CDE9015566
:1045DC00114B0095204600F0F1FA237C064623F09F
:1045EC0004032046237403F036FB2846FFF776FFBE
:1045FC00094A31462046FEF78BF900BF00220030F5
:10460C0000ED00E0C80A0030480A0030F40D00301C
:10461C0080230030CD8E1008294410082DE9F34179
:10462C00044617461E46EFF31188102383F31288B5
:10463C00BFF36F8F304BC2689B6872B18068984231
:10464C0017D057EA060216D188F31188BFF36F8F83
:10465C006FF00F0002B0BDE8F08193F90E102161EC
:10466C000132C4E9023288F31188BFF36F8F002046
:10467C00F0E72169F3E793F90E1090F90E309942A7
:10468C0030DA9942A8BF194603F027FA0546CDE95E
:10469C0000761A482246414600F0F2FB0028E6D08C
:1046AC00EFF31186102383F31288BFF36F8FA0688A
:1046BC00D0B1236821699C420AD04BB193F90E30DA
:1046CC009942A8BF19466FF07F039942B8BF1946AB
:1046DC0003F003FA40B10948314603F016FB6FF0C2
:1046EC000A00B7E70025D2E7002DF4D186F3118834
:1046FC00BFF36F8FF3E700BFF40D00302E120030C4
:10470C00F8B583680546002B3FD0234A9268934244
:10471C003ED1C368012B03D9013BC3600020F8BD17
:10472C00EFF31187102383F31288BFF36F8F0169A6
:10473C00806803F0D2F92C68A54207D10023C5E9A3
:10474C00023387F31188BFF36F8FE7E7002CF5D0A6
:10475C00D4E9003213605A60237C002623F0020354
:10476C002374C4E90066A66004F1180003F069FB29
:10477C00AC6094F90E302B612046A66703F06BFAFF
:10478C000648394603F0C1FAC8E76FF01500C6E7D2
:10479C004FF0FF30C3E700BFF40D00302E12003095
:1047AC0070B5EFF31186102383F31288BFF36F8F6C
:1047BC000468A0421AD0CCB1D4E9003213605A601C
:1047CC00237C002523F002032374C4E90055A56063
:1047DC0004F1180003F035FB2046A56703F03BFA03
:1047EC0031460848BDE8704003F08FBAD0E9023278
:1047FC009A4218BF0133836086F31188BFF36F8F21
:10480C0070BD00BF2E12003013B5EFF311811024D0
:10481C0084F31288BFF36F8F846844B1013C8460C9
:10482C0081F31188BFF36F8F002002B010BD52EAE4
:10483C00030406D181F31188BFF36F8F6FF00F0063
:10484C00F3E7CDE900230246014800F019FBECE741
:10485C002E1200302DE9FF41544E04461027EFF381
:10486C00118887F31288BFF36F8FD4F88450F5B991
:10487C00022104F19C0003F04BF9002870D004F1E4
:10488C00940500220121284603F0A2FA0028F8D151
:10489C00002302934FF0FF324FF0FF33CDE900239A
:1048AC00414604F18C02424800F0F4FCD7E7D4F8FE
:1048BC0088202B68C4F88430954208BFC4F888302F
:1048CC00D4F89C3043F00203C4F89C30EB6823F01E
:1048DC00040343F00103EB606B6888F31188BFF3AA
:1048EC006F8F28469847EFF3118887F31288BFF330
:1048FC006F8FEB68D80623F001023ED4EA60EB68B8
:10490C009A0717D5306823F00203EB6090B1036867
:10491C00002178B1426895423DD10368002934D119
:10492C0072683360904200D17360002340F8083BFA
:10493C00FFF736FFD4F89C3023F00203C4F89C3008
:10494C00DB0530D4D4F88430003B18BF012388F346
:10495C001188BFF36F8F002B81D000F079FB7EE7BD
:10496C00D4F89C30D90693D5C4F89C0088F31188F0
:10497C00BFF36F8F04B0BDE8F08123F01103EB603F
:10498C0005F11000FFF70CFFB9E70B607368984254
:10499C0008BF7160C9E701461BB11A681846134677
:1049AC00B7E71A46FAE70023D1E700BF140E003030
:1049BC002E120030F8B5C3689A0704460E46C3F3AE
:1049CC00400542D45F0742D40B680BB983680B6077
:1049DC00E368D80744BFA368336037684CBF02252F
:1049EC00012557B31B4B9A68D7F880309A421ED1D9
:1049FC0003F0EEF880F00100C0B2D7F89C30D90774
:104A0C00C3F380021CD5F2B1F8B100232360D7F8B0
:104A1C00883073B9C7E92144384603F085F8E36858
:104A2C0043F00403E3603368A3602846F8BD00201C
:104A3C00E3E71C60C7F88840EEE76FF0150506E069
:104A4C006FF0120503E01B07DFD56FF00F05002395
:104A5C003360EAE7F40D0030F8B5C36803F00503E2
:104A6C00002B06460C4614BF012700271CD0856876
:104A7C000122002104F1100003F03EF813492046F6
:104A8C0003F059F8E36843F01003E360F3685B0745
:104A9C0012D5336823606BB9D5F8883033B9C5E9C2
:104AAC002144284603F040F83846F8BD1C60C5F890
:104ABC008840F6E73460F4E7D5F884302360D5F805
:104ACC008830C5F88440002BEBD1F0E7337B10081D
:104ADC00F0B589B004460020C4E921000E9D04F114
:104AEC008C00C4E9230004F19400C4E9250055B3FB
:104AFC002879002840F2011008BF0120C4F89C005E
:104B0C0000204FF0FF364FF0FF37CDE90330CDE9F1
:104B1C000100CDE906670D4B0094204600F09AF891
:104B2C0055B1296811B1204603F058F86B791BB1C7
:104B3C00A38943F00103A381204603F029F9C4F8AB
:104B4C00804009B0F0BD0120D8E700BF61481008D3
:104B5C0030B5044685B0EFF31185102282F312882C
:104B6C00BFF36F8FD0F89C2012F0060F08D1F9B963
:104B7C00D0F8840028B985F31188BFF36F8F15E046
:104B8C00B1B942F00402C4F89C20204602F0CCFFDC
:104B9C0000234FF0FF3202934FF0FF33CDE9002397
:104BAC00054804F19402294600F074FB05B030BDB1
:104BBC0042F00C02E7E700BF2E1200302DE9F04363
:104BCC00073285B022F007020E461F4610998181EC
:104BDC0000F158037F32C0E916330446002322F05B
:104BEC003F020421836001743F2A0F98A073C4E92B
:104BFC000633E37306F14009A2F1400805D883F3AC
:104C0C001188BFF36F8F084602DFB518294620467E
:104C1C00FDF76EFB07300E9B20F00700A066C4E981
:104C2C00189802930D9B01932D1A0C9B00932A4606
:104C3C003B4631462046FDF739FE00236365044BA5
:104C4C009B6803B1DB6EE366284605B0BDE8F083D4
:104C5C00F40D0030F0B587B000250595109D049536
:104C6C000F9D03950E9D0295DDE912760D9D019524
:104C7C000C9D00950446FFF7A1FFB6F1FF3F08BF5E
:104C8C00B7F1FF3F05D056EA070305D1204603F0E4
:104C9C007FF8204607B0F0BD3A46334604F11800C1
:104CAC00014900F0B7FBF4E7CB7C1008012310B5E9
:104CBC00037483810023C0E91833044600F0A4FD7B
:104CCC00014B9C6010BD00BFF40D0030094A936885
:104CDC006FF00A019967084958674B6843F0805395
:104CEC004B60002383F31188BFF36F8F9368986F29
:104CFC00704700BFF40D003000ED00E070B590F986
:104D0C001020037C002A2FDBD9062DD11A4C63F01E
:104D1C007F032246037452F8183FE169934207D18E
:104D2C00C0E900210860E0610FE09942F8D01B68EF
:104D3C00002BF5D093F90E6090F90E50AE42F4DDD5
:104D4C005968C0E9003108605860A569954200D0E7
:104D5C0005B9E568A3681A7CD20606D1DA897F2AE0
:104D6C0003D9AA690AB9636170BDAB4202D0284667
:104D7C0000F0D2FA6561F7E7F40D003038B590F920
:104D8C001020037C002A014604DA03F07F0303742D
:104D9C0002F029FF0D4D2A46AB6852F8184F944289
:104DAC0000D004B9EC688B4207D01A7CD20604D12F
:104DBC00DA897F2A01D9A2692AB1A34202D02046FE
:104DCC0000F0AAFA23466B6138BD00BFF40D003029
:104DDC00B3F1FF3F08BFB2F1FF3F03D002491830D7
:104DEC0000F018BB704700BFCB7C1008034648B9D5
:104DFC00EFF3058232B9064A51699268914201D0AB
:104E0C00FFF764BF83F31188BFF36F8F704700BF48
:104E1C00F40D003038B5184CA168E0690B6881427C
:104E2C0014BF1A46002249680B605960A368E169F7
:104E3C002AB9124AC3E900210B60E3610AE092F936
:104E4C000E5093F90E00854212DD5168C3E9002122
:104E5C000B605360A569094B9D4200D005B9E5680C
:104E6C00A3689D4202D0284600F056FA656138BD11
:104E7C008A42DED01268DBE7F40D00300C0E0030F5
:104E8C00F8B50E4B0C4611460D4A98681060DDE9DA
:104E9C000667EFF31182102282F31288BFF36F8F33
:104EAC009D68284602F0B1FE284632463B46FFF785
:104EBC008FFF2046BDE8F840FFF708BFF40D003027
:104ECC001C0E0030F8B50446EFF31187102383F362
:104EDC001288BFF36F8F037C03F01F02002A0CBFF4
:104EEC000126002649B235D103F07F03037402F08A
:104EFC007AFE294D037C817363F07F032A46037489
:104F0C0052F8183FE869934207D1C4E900200460C5
:104F1C00EC610DE09842F8D01B68002BF5D093F9AA
:104F2C000EC08C45F6DD5968C4E900310C605C603C
:104F3C00AC69944200D004B9EC68AB689C4202D0D6
:104F4C00204600F0E9F96C6187F31188BFF36F8F8D
:104F5C003046F8BD9B071CD5856802F044FE817372
:104F6C002B689D4209D16B68C4E900531C606C60CE
:104F7C00EAE76A689A42F6D01B68002BF3D093F9E3
:104F8C000E208A42F5DD5A68C4E9003214605C6078
:104F9C00DAE78173D8E700BFF40D0030034648B957
:104FAC00EFF3058232B9064A51699268914201D0F9
:104FBC00FFF78CBE83F31188BFF36F8F704700BF70
:104FCC00F40D0030EFF31181102383F31288BFF33B
:104FDC006F8F054B9A68D37B013BD37381F3118898
:104FEC00BFF36F8F704700BFF40D003070B5EFF357
:104FFC001186102383F31288BFF36F8F0F4DAB68AC
:10500C00DA7B0132DA732A4652F8184F944200D0F8
:10501C0004B9EC681A7CD20604D1DA897F2A01D94A
:10502C00A2692AB19C4202D0204600F075F92346B1
:10503C006B613046BDE87040FFF7D8BEF40D003010
:10504C00024B03F11802C3E906227047F40D00303D
:10505C0070B5EFF31186102383F31288BFF36F8FB3
:10506C001A4CA168E0690B68814214BF1A460022F1
:10507C0049680B605960A368E1692AB9144AC3E90D
:10508C0000210B60E3610AE092F90E5093F90E00D7
:10509C00854216DD5168C3E900210B605360A56998
:1050AC000B4B9D4200D005B9E568A3689D4202D028
:1050BC00284600F031F965613046BDE87040FFF7D5
:1050CC0005BE8A42DAD01268D7E700BFF40D003073
:1050DC000C0E0030F8B550EA010306460C4603D11D
:1050EC00FFF7B6FF0020F8BDEFF31187102383F311
:1050FC001288BFF36F8F124D124BA8681860FFF720
:10510C003DFEA868104923463246183000F082F95B
:10511C00AA68137C43F00403137404463846FFF763
:10512C00D5FDAB68D3E90A23B3F1004F08BF002AC1
:10513C00D8D102F0BBFE201A20EAE070D3E700BF02
:10514C00F40D00301C0E0030CB7C1008014B98681D
:10515C00704700BFF40D00302DE9F84304468789F1
:10516C00EFF31186102383F31288BFF36F8F037C48
:10517C00190705D586F31188BFF36F8FBDE8F88347
:10518C00D90943F008026FD10274A36813B1204609
:10519C0002F031FD04F1180002F053FEA56D04F18C
:1051AC005808A84511D04FF0000975B1284602F0F7
:1051BC0022FD05F1180002F044FEC5F8789028464F
:1051CC00FFF79CFDA56DA845EFD1DFF8BC80D8F8A2
:1051DC0008309C4250D1EFF30589B9F1000918BF92
:1051EC004FF00109D8F81850284A954200D00DB953
:1051FC00D8F80C50AB4202D0284600F08DF820466F
:10520C00C8F8145001F0F1FCB9F1000F02D020489D
:10521C00FFF74CFDD8F808309C4230D1EFF30583F2
:10522C006BBBA289D20711D586F31188BFF36F8FA0
:10523C0083F31188BFF36F8F0423184602DFEFF35B
:10524C001186102383F31288BFF36F8F3046FFF75C
:10525C003DFDFB0792D5002383F31188BFF36F8FBD
:10526C000423184602DF89E703F07F0343F00803A9
:10527C00037402F0B8FC88E74FF00009B2E786F33C
:10528C001188BFF36F8FE4E7F40D00300C0E003083
:10529C00C80A0030D3B5DDE90667089CCDE9006784
:1052AC00FFF7EEFD1CB1034B9B685B69236002B0FA
:1052BC00D0BD00BFF40D0030027C12F01F0203467B
:1052CC0010D10A4988420DD00949086868B1D989BA
:1052DC007F2909D893F90E20064B1B689A42B8BF58
:1052EC00002070470020704710467047C8090030F6
:1052FC00AC000030200E0030044BC01A044BC01020
:10530C005843044B01221A54704700BF480B00301D
:10531C00ABAAAAAA2E12003070B50C4B0C4D1E7CF9
:10532C00FFF7CAFF182303FB06550446284602F074
:10533C0088FD084B00229A553CB1621E284606494E
:10534C00BDE87040D31700F065B870BDF40D0030A7
:10535C00480B00302E1200300553100838B5EFF30F
:10536C001185102383F31288BFF36F8F0F4B104AF4
:10537C009C681068A04206D1FFF7CEFF85F3118818
:10538C00BFF36F8F38BD00211B7C1160094AD35CC1
:10539C00002BF3D02046FFF78FFF0028EED0237CA4
:1053AC00DB0601D1FFF736FD2046E5E7F40D0030B2
:1053BC001C0E00302E120030024B1868984208BFA9
:1053CC0000207047B0000030034B1B680BB9FEF790
:1053DC00E9BB0020704700BF240E003030B570B11F
:1053EC000B4B5B6898420AD0036843B1D3E90421A4
:1053FC00D0E90445121941EB0501C3E90421D0E9B8
:10540C00003213605A600023C0E9003330BD00BF86
:10541C00B0000030B3F1FF3F08BFB2F1FF3F2DE900
:10542C00F84F0446994615461F467AD08160EFF333
:10543C001188102383F31288BFF36F8FB9F1000F1B
:10544C00DFF8E4A020DBFFF7BFFFDAE90027013526
:10545C0049F100092D1849EBE073C4E90453AD1868
:10546C00064643EB07074FF00109FFF7A5FFDFF8EE
:10547C00BCE0DEF804A00346EBB9C4E900EACAF8C4
:10548C000040CEF8044028E0DAE900126FF0010386
:10549C005B1A4FF0FF3161EB02025B1B62EB0902FE
:1054AC00012B72F10001BCBF01230022C0E90432C0
:1054BC004FF00009D9E7D3E9041CD4E904208A424F
:1054CC0070EB0C0B24DA891A5A686CEB0000C3E9F8
:1054DC000410C4E9003214605C60FFF76DFF844275
:1054EC000ED1134B1B685BB9B9F1000F02D1FFF75A
:1054FC006BFF0646304602F08DFC0021FEF7D8FA11
:10550C0088F31188BFF36F8F28463946BDE8F88FB2
:10551C00521A60EB0C005345C4E90420ADD01B6853
:10552C00AAE700252F46EFE7600B0030B0000030F3
:10553C00240E00302DE9F047DFF8A890DFF8A880A2
:10554C00C9F800000246FFF737FF0D46002600277A
:10555C00D8E900134FEAE27E50B1D0E9044CA242E4
:10556C007EEB0C0A1BDAA41A6CEB0E06C0E904469F
:10557C0052184FF0000443EB0E032046C8E90023F9
:10558C00C9F8004002F046FC2146FEF791FA85F37B
:10559C001188BFF36F8FBDE8F047FFF7DFBE6118CE
:1055AC0043EBE473C0E90467C8E90013FFF716FF87
:1055BC0001224FF00043C0E9042385F31188BFF3A7
:1055CC006F8F83689847EFF31185102383F312884C
:1055DC00BFF36F8FD9F80020121BC9F80020FFF71A
:1055EC00EBFEB5E7240E0030600B003010B5EFF386
:1055FC001184102383F31288BFF36F8FFFF7E4FE3F
:10560C00054A0346D2E90001181841EBE37184F313
:10561C001188BFF36F8F10BD600B0030F8B50446D6
:10562C00EFF31187102383F31288BFF36F8FD0E948
:10563C000423B3F1004F08BF012A04D087F311886B
:10564C00BFF36F8FF8BDD0E90A566A1C46F1000310
:10565C00022A73F1000334D3013D46F1FF36002ECC
:10566C00BCBF00252E4602F025FC013041F10001A3
:10567C00401946EB0101012871F1000147DB02F0F2
:10568C0019FC013041F100016FF00203401946EBA7
:10569C00010183426FF000438B413DDB02F00AFCB9
:1056AC00013041F100016FF00102401946EB01039A
:1056BC00121A4FF0FF3161EB030319492046FFF733
:1056CC00A9FE236B01332363236A63B187F311882B
:1056DC00BFF36F8F20469847EFF31187102383F3A6
:1056EC001288BFF36F8F54F8185FA542A6D0002D17
:1056FC00A4D0284602F0BEFA0023AB6787F31188CA
:10570C00BFF36F8F2846BDE8F84002F0A4BA6FF0E3
:10571C0001024FF0FF33D0E700224FF00043CCE7FB
:10572C00295610082DE9F04105461C4690461F46A7
:10573C00EFF31186102383F31288BFF36F8FB4F14C
:10574C00FF3F08BFB2F1FF3F05D186F31188BFF3CD
:10575C006F8FBDE8F081002C09DB012A74F1000386
:10576C00BCBF0122002412F1FF3844F1FF37284658
:10577C0002F067FBDDE906010023C5E90A012B6392
:10578C0042463B4628460249FFF744FEDDE700BF90
:10579C002956100870B50546EFF31184102686F3D0
:1057AC001288BFF36F8F02F04CFB20B184F3118889
:1057BC00BFF36F8F70BD6B6A63B184F31188BFF355
:1057CC006F8F6B6A28469847EFF3118486F3128823
:1057DC00BFF36F8F05F1180002F081FA0028E5D0B5
:1057EC0002F039FA21460248BDE8704002F08DBA49
:1057FC002F1200300246024B0248002102F068BB17
:10580C00375F100838010030014BC366704700BF8A
:10581C0038010030014800F01EBC00BF1D98100874
:10582C0038B5064C064DAC4201D3002038BDD4E946
:10583C000112204602F06BFB1434F4E738010030FF
:10584C004C01003007B5074B0093074907484FF050
:10585C00FF334FF48062FFF73BF9002003B05DF893
:10586C0004FB00BF748B1008C02B0030680B003099
:10587C000CB430B58BB004460D462022002102A892
:10588C0002F077FB02238DF80A30002D0C4B0393AA
:10589C00069412DB01D06B1E1C440FAA0E990794C0
:1058AC0002A8019200F00EF815B1069B00221A70A6
:1058BC000BB0BDE8304002B070470024EDE700BFEC
:1058CC009F8010082DE9F04F8BB0436800938378CC
:1058DC009C078046924640F1F98000250878002804
:1058EC0000F0F68025280AD04B1C01930135414667
:1058FC00009B98470028C0F2E3800199EEE74E78B0
:10590C008B1C252E0193F1D00027B9463C460A2268
:10591C001F2C22D8A6F12003102B20D8DFE803F08F
:10592C00141F1F1A1F1F1F0B1F1F1F121F171F1FB4
:10593C00090044F00104019B13F8016B0193002E44
:10594C00E6D13AE044F0020444F00404F3E744F0F6
:10595C000804F0E744F01004EDE77F2C24D8A6F1FE
:10596C003003092B08D860064EBF02FB073702FB39
:10597C00093944F02004DEE72A2E0DD161065AF8CD
:10598C00043B53D4002BA7BF44F020049946C3F129
:10599C00000944F02804CEE72E2E05D1630600F151
:1059AC00978044F04004C6E76C2E2ED028D8682E81
:1059BC0032D06A2E37D04C2E35D0002F46F0200333
:1059CC00B8BF24F04004A3F16502BCBFA4B2002709
:1059DC00022A01D9612B2BD10AF1070A2AF0070AF6
:1059EC009C4E0AF1080A0727210760D506EB070B26
:1059FC0034465C455DD1AE1BA219A9EB070959E1F0
:105A0C00742E98D07A2E96D0D7E7260648BF44F449
:105A1C00007444F080048EE7E00548BF44F4007441
:105A2C0044F4807487E744F4207484E71F4682E7CB
:105A3C00A6F16302122A00F2D880DFE812F01300FC
:105A4C004D00D600D600D600D6004D00D600D600AC
:105A5C00D600D600D600E800D100D600D6001A0039
:105A6C00D600A0005AF8043B8DF81030012704AE84
:105A7C00BAE75AF8046B784B002E08BF1E4614F098
:105A8C00400F14BF39464FF0FF31304602F09EFAFA
:105A9C000746A9E7009B41462020984700280FDBCA
:105AAC00013CA742F6D34D442D1BA1469EE74C4624
:105ABC00F7E714F8010B009B41469847002898DA49
:105ACC0098F8023043F0040388F802304FF0FF35A9
